{
  "_format": "hh-sol-artifact-1",
  "contractName": "ClearingHouse",
  "sourceName": "contracts/ClearingHouse.sol",
  "abi": [
    {
      "anonymous": false,
      "inputs": [
        {
          "indexed": true,
          "internalType": "address",
          "name": "previousOwner",
          "type": "address"
        },
        {
          "indexed": true,
          "internalType": "address",
          "name": "newOwner",
          "type": "address"
        }
      ],
      "name": "OwnershipTransferred",
      "type": "event"
    },
    {
      "anonymous": false,
      "inputs": [
        {
          "indexed": false,
          "internalType": "address",
          "name": "account",
          "type": "address"
        }
      ],
      "name": "Paused",
      "type": "event"
    },
    {
      "anonymous": false,
      "inputs": [
        {
          "indexed": true,
          "internalType": "address",
          "name": "trader",
          "type": "address"
        },
        {
          "indexed": true,
          "internalType": "address",
          "name": "baseToken",
          "type": "address"
        },
        {
          "indexed": false,
          "internalType": "int256",
          "name": "exchangedPositionSize",
          "type": "int256"
        },
        {
          "indexed": false,
          "internalType": "int256",
          "name": "exchangedPositionNotional",
          "type": "int256"
        },
        {
          "indexed": false,
          "internalType": "uint256",
          "name": "fee",
          "type": "uint256"
        },
        {
          "indexed": false,
          "internalType": "int256",
          "name": "openNotional",
          "type": "int256"
        },
        {
          "indexed": false,
          "internalType": "int256",
          "name": "realizedPnl",
          "type": "int256"
        }
      ],
      "name": "PositionChanged",
      "type": "event"
    },
    {
      "anonymous": false,
      "inputs": [
        {
          "indexed": true,
          "internalType": "address",
          "name": "trader",
          "type": "address"
        },
        {
          "indexed": true,
          "internalType": "address",
          "name": "baseToken",
          "type": "address"
        },
        {
          "indexed": false,
          "internalType": "uint256",
          "name": "positionNotional",
          "type": "uint256"
        },
        {
          "indexed": false,
          "internalType": "uint256",
          "name": "positionSize",
          "type": "uint256"
        },
        {
          "indexed": false,
          "internalType": "uint256",
          "name": "liquidationFee",
          "type": "uint256"
        },
        {
          "indexed": false,
          "internalType": "address",
          "name": "liquidator",
          "type": "address"
        }
      ],
      "name": "PositionLiquidated",
      "type": "event"
    },
    {
      "anonymous": false,
      "inputs": [
        {
          "indexed": true,
          "internalType": "bytes32",
          "name": "referralCode",
          "type": "bytes32"
        }
      ],
      "name": "ReferredPositionChanged",
      "type": "event"
    },
    {
      "anonymous": false,
      "inputs": [
        {
          "indexed": false,
          "internalType": "address",
          "name": "trustedForwarder",
          "type": "address"
        }
      ],
      "name": "TrustedForwarderUpdated",
      "type": "event"
    },
    {
      "anonymous": false,
      "inputs": [
        {
          "indexed": false,
          "internalType": "address",
          "name": "account",
          "type": "address"
        }
      ],
      "name": "Unpaused",
      "type": "event"
    },
    {
      "inputs": [],
      "name": "accountBalance",
      "outputs": [
        {
          "internalType": "address",
          "name": "",
          "type": "address"
        }
      ],
      "stateMutability": "view",
      "type": "function"
    },
    {
      "inputs": [
        {
          "components": [
            {
              "internalType": "address",
              "name": "baseToken",
              "type": "address"
            },
            {
              "internalType": "uint256",
              "name": "base",
              "type": "uint256"
            },
            {
              "internalType": "uint256",
              "name": "quote",
              "type": "uint256"
            },
            {
              "internalType": "int24",
              "name": "lowerTick",
              "type": "int24"
            },
            {
              "internalType": "int24",
              "name": "upperTick",
              "type": "int24"
            },
            {
              "internalType": "uint256",
              "name": "minBase",
              "type": "uint256"
            },
            {
              "internalType": "uint256",
              "name": "minQuote",
              "type": "uint256"
            },
            {
              "internalType": "uint256",
              "name": "deadline",
              "type": "uint256"
            }
          ],
          "internalType": "struct ClearingHouse.AddLiquidityParams",
          "name": "params",
          "type": "tuple"
        }
      ],
      "name": "addLiquidity",
      "outputs": [
        {
          "components": [
            {
              "internalType": "uint256",
              "name": "base",
              "type": "uint256"
            },
            {
              "internalType": "uint256",
              "name": "quote",
              "type": "uint256"
            },
            {
              "internalType": "uint256",
              "name": "fee",
              "type": "uint256"
            },
            {
              "internalType": "uint256",
              "name": "liquidity",
              "type": "uint256"
            }
          ],
          "internalType": "struct ClearingHouse.AddLiquidityResponse",
          "name": "",
          "type": "tuple"
        }
      ],
      "stateMutability": "nonpayable",
      "type": "function"
    },
    {
      "inputs": [
        {
          "internalType": "address",
          "name": "maker",
          "type": "address"
        },
        {
          "internalType": "address",
          "name": "baseToken",
          "type": "address"
        }
      ],
      "name": "cancelAllExcessOrders",
      "outputs": [],
      "stateMutability": "nonpayable",
      "type": "function"
    },
    {
      "inputs": [
        {
          "internalType": "address",
          "name": "maker",
          "type": "address"
        },
        {
          "internalType": "address",
          "name": "baseToken",
          "type": "address"
        },
        {
          "internalType": "bytes32[]",
          "name": "orderIds",
          "type": "bytes32[]"
        }
      ],
      "name": "cancelExcessOrders",
      "outputs": [],
      "stateMutability": "nonpayable",
      "type": "function"
    },
    {
      "inputs": [],
      "name": "candidate",
      "outputs": [
        {
          "internalType": "address",
          "name": "",
          "type": "address"
        }
      ],
      "stateMutability": "view",
      "type": "function"
    },
    {
      "inputs": [],
      "name": "clearingHouseConfig",
      "outputs": [
        {
          "internalType": "address",
          "name": "",
          "type": "address"
        }
      ],
      "stateMutability": "view",
      "type": "function"
    },
    {
      "inputs": [
        {
          "components": [
            {
              "internalType": "address",
              "name": "baseToken",
              "type": "address"
            },
            {
              "internalType": "uint160",
              "name": "sqrtPriceLimitX96",
              "type": "uint160"
            },
            {
              "internalType": "uint256",
              "name": "oppositeAmountBound",
              "type": "uint256"
            },
            {
              "internalType": "uint256",
              "name": "deadline",
              "type": "uint256"
            },
            {
              "internalType": "bytes32",
              "name": "referralCode",
              "type": "bytes32"
            }
          ],
          "internalType": "struct ClearingHouse.ClosePositionParams",
          "name": "params",
          "type": "tuple"
        }
      ],
      "name": "closePosition",
      "outputs": [
        {
          "internalType": "uint256",
          "name": "deltaBase",
          "type": "uint256"
        },
        {
          "internalType": "uint256",
          "name": "deltaQuote",
          "type": "uint256"
        }
      ],
      "stateMutability": "nonpayable",
      "type": "function"
    },
    {
      "inputs": [],
      "name": "exchange",
      "outputs": [
        {
          "internalType": "address",
          "name": "",
          "type": "address"
        }
      ],
      "stateMutability": "view",
      "type": "function"
    },
    {
      "inputs": [
        {
          "internalType": "address",
          "name": "trader",
          "type": "address"
        }
      ],
      "name": "getAccountValue",
      "outputs": [
        {
          "internalType": "int256",
          "name": "",
          "type": "int256"
        }
      ],
      "stateMutability": "view",
      "type": "function"
    },
    {
      "inputs": [
        {
          "internalType": "address",
          "name": "baseToken",
          "type": "address"
        }
      ],
      "name": "getMaxTickCrossedWithinBlock",
      "outputs": [
        {
          "internalType": "uint24",
          "name": "",
          "type": "uint24"
        }
      ],
      "stateMutability": "view",
      "type": "function"
    },
    {
      "inputs": [
        {
          "internalType": "address",
          "name": "trader",
          "type": "address"
        },
        {
          "internalType": "address",
          "name": "baseToken",
          "type": "address"
        }
      ],
      "name": "getOpenNotional",
      "outputs": [
        {
          "internalType": "int256",
          "name": "",
          "type": "int256"
        }
      ],
      "stateMutability": "view",
      "type": "function"
    },
    {
      "inputs": [
        {
          "internalType": "address",
          "name": "clearingHouseConfigArg",
          "type": "address"
        },
        {
          "internalType": "address",
          "name": "vaultArg",
          "type": "address"
        },
        {
          "internalType": "address",
          "name": "insuranceFundArg",
          "type": "address"
        },
        {
          "internalType": "address",
          "name": "quoteTokenArg",
          "type": "address"
        },
        {
          "internalType": "address",
          "name": "uniV3FactoryArg",
          "type": "address"
        },
        {
          "internalType": "address",
          "name": "exchangeArg",
          "type": "address"
        },
        {
          "internalType": "address",
          "name": "accountBalanceArg",
          "type": "address"
        }
      ],
      "name": "initialize",
      "outputs": [],
      "stateMutability": "nonpayable",
      "type": "function"
    },
    {
      "inputs": [],
      "name": "insuranceFund",
      "outputs": [
        {
          "internalType": "address",
          "name": "",
          "type": "address"
        }
      ],
      "stateMutability": "view",
      "type": "function"
    },
    {
      "inputs": [
        {
          "internalType": "address",
          "name": "forwarder",
          "type": "address"
        }
      ],
      "name": "isTrustedForwarder",
      "outputs": [
        {
          "internalType": "bool",
          "name": "",
          "type": "bool"
        }
      ],
      "stateMutability": "view",
      "type": "function"
    },
    {
      "inputs": [
        {
          "internalType": "address",
          "name": "trader",
          "type": "address"
        },
        {
          "internalType": "address",
          "name": "baseToken",
          "type": "address"
        }
      ],
      "name": "liquidate",
      "outputs": [],
      "stateMutability": "nonpayable",
      "type": "function"
    },
    {
      "inputs": [
        {
          "components": [
            {
              "internalType": "address",
              "name": "baseToken",
              "type": "address"
            },
            {
              "internalType": "bool",
              "name": "isBaseToQuote",
              "type": "bool"
            },
            {
              "internalType": "bool",
              "name": "isExactInput",
              "type": "bool"
            },
            {
              "internalType": "uint256",
              "name": "amount",
              "type": "uint256"
            },
            {
              "internalType": "uint256",
              "name": "oppositeAmountBound",
              "type": "uint256"
            },
            {
              "internalType": "uint256",
              "name": "deadline",
              "type": "uint256"
            },
            {
              "internalType": "uint160",
              "name": "sqrtPriceLimitX96",
              "type": "uint160"
            },
            {
              "internalType": "bytes32",
              "name": "referralCode",
              "type": "bytes32"
            }
          ],
          "internalType": "struct ClearingHouse.OpenPositionParams",
          "name": "params",
          "type": "tuple"
        }
      ],
      "name": "openPosition",
      "outputs": [
        {
          "internalType": "uint256",
          "name": "deltaBase",
          "type": "uint256"
        },
        {
          "internalType": "uint256",
          "name": "deltaQuote",
          "type": "uint256"
        }
      ],
      "stateMutability": "nonpayable",
      "type": "function"
    },
    {
      "inputs": [],
      "name": "orderBook",
      "outputs": [
        {
          "internalType": "address",
          "name": "",
          "type": "address"
        }
      ],
      "stateMutability": "view",
      "type": "function"
    },
    {
      "inputs": [],
      "name": "owner",
      "outputs": [
        {
          "internalType": "address",
          "name": "",
          "type": "address"
        }
      ],
      "stateMutability": "view",
      "type": "function"
    },
    {
      "inputs": [],
      "name": "pause",
      "outputs": [],
      "stateMutability": "nonpayable",
      "type": "function"
    },
    {
      "inputs": [],
      "name": "paused",
      "outputs": [
        {
          "internalType": "bool",
          "name": "",
          "type": "bool"
        }
      ],
      "stateMutability": "view",
      "type": "function"
    },
    {
      "inputs": [],
      "name": "quoteToken",
      "outputs": [
        {
          "internalType": "address",
          "name": "",
          "type": "address"
        }
      ],
      "stateMutability": "view",
      "type": "function"
    },
    {
      "inputs": [
        {
          "components": [
            {
              "internalType": "address",
              "name": "baseToken",
              "type": "address"
            },
            {
              "internalType": "int24",
              "name": "lowerTick",
              "type": "int24"
            },
            {
              "internalType": "int24",
              "name": "upperTick",
              "type": "int24"
            },
            {
              "internalType": "uint128",
              "name": "liquidity",
              "type": "uint128"
            },
            {
              "internalType": "uint256",
              "name": "minBase",
              "type": "uint256"
            },
            {
              "internalType": "uint256",
              "name": "minQuote",
              "type": "uint256"
            },
            {
              "internalType": "uint256",
              "name": "deadline",
              "type": "uint256"
            }
          ],
          "internalType": "struct ClearingHouse.RemoveLiquidityParams",
          "name": "params",
          "type": "tuple"
        }
      ],
      "name": "removeLiquidity",
      "outputs": [
        {
          "components": [
            {
              "internalType": "uint256",
              "name": "base",
              "type": "uint256"
            },
            {
              "internalType": "uint256",
              "name": "quote",
              "type": "uint256"
            },
            {
              "internalType": "uint256",
              "name": "fee",
              "type": "uint256"
            }
          ],
          "internalType": "struct ClearingHouse.RemoveLiquidityResponse",
          "name": "response",
          "type": "tuple"
        }
      ],
      "stateMutability": "nonpayable",
      "type": "function"
    },
    {
      "inputs": [],
      "name": "renounceOwnership",
      "outputs": [],
      "stateMutability": "nonpayable",
      "type": "function"
    },
    {
      "inputs": [
        {
          "internalType": "address",
          "name": "baseToken",
          "type": "address"
        },
        {
          "internalType": "uint24",
          "name": "maxTickCrossedWithinBlock",
          "type": "uint24"
        }
      ],
      "name": "setMaxTickCrossedWithinBlock",
      "outputs": [],
      "stateMutability": "nonpayable",
      "type": "function"
    },
    {
      "inputs": [
        {
          "internalType": "address",
          "name": "newOwner",
          "type": "address"
        }
      ],
      "name": "setOwner",
      "outputs": [],
      "stateMutability": "nonpayable",
      "type": "function"
    },
    {
      "inputs": [
        {
          "internalType": "address",
          "name": "trustedForwarderArg",
          "type": "address"
        }
      ],
      "name": "setTrustedForwarder",
      "outputs": [],
      "stateMutability": "nonpayable",
      "type": "function"
    },
    {
      "inputs": [],
      "name": "trustedForwarder",
      "outputs": [
        {
          "internalType": "address",
          "name": "",
          "type": "address"
        }
      ],
      "stateMutability": "view",
      "type": "function"
    },
    {
      "inputs": [],
      "name": "uniswapV3Factory",
      "outputs": [
        {
          "internalType": "address",
          "name": "",
          "type": "address"
        }
      ],
      "stateMutability": "view",
      "type": "function"
    },
    {
      "inputs": [
        {
          "internalType": "uint256",
          "name": "amount0Owed",
          "type": "uint256"
        },
        {
          "internalType": "uint256",
          "name": "amount1Owed",
          "type": "uint256"
        },
        {
          "internalType": "bytes",
          "name": "data",
          "type": "bytes"
        }
      ],
      "name": "uniswapV3MintCallback",
      "outputs": [],
      "stateMutability": "nonpayable",
      "type": "function"
    },
    {
      "inputs": [
        {
          "internalType": "int256",
          "name": "amount0Delta",
          "type": "int256"
        },
        {
          "internalType": "int256",
          "name": "amount1Delta",
          "type": "int256"
        },
        {
          "internalType": "bytes",
          "name": "data",
          "type": "bytes"
        }
      ],
      "name": "uniswapV3SwapCallback",
      "outputs": [],
      "stateMutability": "nonpayable",
      "type": "function"
    },
    {
      "inputs": [],
      "name": "unpause",
      "outputs": [],
      "stateMutability": "nonpayable",
      "type": "function"
    },
    {
      "inputs": [],
      "name": "updateOwner",
      "outputs": [],
      "stateMutability": "nonpayable",
      "type": "function"
    },
    {
      "inputs": [],
      "name": "vault",
      "outputs": [
        {
          "internalType": "address",
          "name": "",
          "type": "address"
        }
      ],
      "stateMutability": "view",
      "type": "function"
    },
    {
      "inputs": [],
      "name": "versionRecipient",
      "outputs": [
        {
          "internalType": "string",
          "name": "",
          "type": "string"
        }
      ],
      "stateMutability": "view",
      "type": "function"
    }
  ],
  "bytecode": "0x608060405234801561001057600080fd5b50615dde80620000216000396000f3fe608060405234801561001057600080fd5b50600436106101955760003560e01c8062aa9a891461019a57806313af4035146101c457806313f3d56e146101d9578063217a4b70146101f957806329386b7b1461020e578063358764761461022e5780633f4ba83a14610241578063486ff0cd14610249578063572b6c051461025e5780635ae809511461027e5780635b5491821461029e5780635c975abb146102a65780635eb8a4e6146102ae5780636c8381f8146102c1578063715018a6146102c9578063776af5ba146102d15780637da0a877146102d957806380a98332146102e15780638456cb59146102f457806386b9d81f146102fc5780638da5cb5b1461030f578063b0a1c1c414610317578063b6b1b6c31461031f578063b790230314610332578063b7c7ec6a1461033a578063bc5920ba1461034d578063c2075b2114610355578063cc3606dc1461035d578063cde109b614610370578063d2f7265a14610390578063d348799714610398578063da742228146103ab578063fa461e33146103be578063fbfa77cf146103d1575b600080fd5b6101ad6101a8366004615196565b6103d9565b6040516101bb929190615bb8565b60405180910390f35b6101d76101d2366004614dfe565b61066d565b005b6101ec6101e736600461511a565b6107c8565b6040516101bb9190615a5d565b610201610c0c565b6040516101bb91906154ad565b61022161021c366004614dfe565b610c1c565b6040516101bb9190615ba8565b6101d761023c366004614e6e565b610c41565b6101d76110b5565b61025161111c565b6040516101bb9190615624565b61027161026c366004614dfe565b6111ab565b6040516101bb91906155ed565b61029161028c366004614dfe565b6111c0565b6040516101bb91906155f8565b61020161126c565b61027161127c565b6101d76102bc366004614f91565b611286565b610201611374565b6101d7611383565b610201611424565b610201611434565b6101d76102ef366004614f03565b611444565b6101d7611527565b6101d761030a366004614e36565b61158c565b610201611add565b610201611aec565b6101ad61032d366004615245565b611afc565b610201611edd565b610291610348366004614e36565b611eed565b6101d761200d565b6102016120f9565b6101d761036b366004614e36565b612109565b61038361037e3660046152e9565b61223f565b6040516101bb9190615adf565b61020161240b565b6101d76103a63660046150ca565b61241b565b6101d76103b9366004614dfe565b612679565b6101d76103cc3660046150ca565b612710565b610201612913565b6000806103e461127c565b15610429576040805162461bcd60e51b815260206004820152601060248201526f14185d5cd8589b194e881c185d5cd95960821b604482015290519081900360640190fd5b6002600154141561046f576040805162461bcd60e51b815260206004820152601f6024820152600080516020615c66833981519152604482015290519081900360640190fd5b6002600155606083013580610482612923565b11156104be576040805162461bcd60e51b81526020600480830191909152602482015263565f544560e01b604482015290519081900360640190fd5b6104d36104ce6020860186614dfe565b612927565b60006104dd6129d0565b61016a549091506000906001600160a01b0316631b76e2318361050360208a018a614dfe565b6040518363ffffffff1660e01b81526004016105209291906154c1565b6040805180830381600087803b15801561053957600080fd5b505af115801561054d573d6000803e3d6000fd5b505050506040513d601f19601f8201168201806040525081019061057191906151a7565b905060006105dc6040518060800160405280856001600160a01b031681526020018960000160208101906105a59190614dfe565b6001600160a01b031681526020018960200160208101906105c69190614dfe565b6001600160a01b031681526020018490526129df565b90506000808260400151126105f25760006105f5565b60015b90506106366040518060a001604052808315158152602001831515815260200184602001518152602001846000015181526020018a60400135815250612d5b565b604051608089013590600080516020615ca783398151915290600090a2508051602090910151600180559097909650945050505050565b6106756129d0565b6001600160a01b0316610686611add565b6001600160a01b0316146106ca576040805162461bcd60e51b8152602060048201526006602482015265534f5f434e4f60d01b604482015290519081900360640190fd5b6001600160a01b03811661070e576040805162461bcd60e51b81526020600482015260066024820152650534f5f4e57360d41b604482015290519081900360640190fd5b6097546001600160a01b038281169116141561075a576040805162461bcd60e51b8152602060048201526006602482015265534f5f53414f60d01b604482015290519081900360640190fd5b6098546001600160a01b03828116911614156107a6576040805162461bcd60e51b8152602060048201526006602482015265534f5f53414360d01b604482015290519081900360640190fd5b609880546001600160a01b0319166001600160a01b0392909216919091179055565b6107d0614c74565b6107d861127c565b1561081d576040805162461bcd60e51b815260206004820152601060248201526f14185d5cd8589b194e881c185d5cd95960821b604482015290519081900360640190fd5b60026001541415610863576040805162461bcd60e51b815260206004820152601f6024820152600080516020615c66833981519152604482015290519081900360640190fd5b600260015560e082013580610876612923565b11156108b2576040805162461bcd60e51b81526020600480830191909152602482015263565f544560e01b604482015290519081900360640190fd5b6108c26104ce6020850185614dfe565b60006108cc6129d0565b61016a549091506001600160a01b031663fc737214826108ef6020880188614dfe565b6040518363ffffffff1660e01b815260040161090c9291906154c1565b600060405180830381600087803b15801561092657600080fd5b505af115801561093a573d6000803e3d6000fd5b505061016a54600092506001600160a01b03169050631b76e231836109626020890189614dfe565b6040518363ffffffff1660e01b815260040161097f9291906154c1565b6040805180830381600087803b15801561099857600080fd5b505af11580156109ac573d6000803e3d6000fd5b505050506040513d601f19601f820116820180604052508101906109d091906151a7565b610169546040805160e081019091526001600160a01b0385811682529293506000929091169063e8ab2fb390602080820190610a0e908b018b614dfe565b6001600160a01b031681526020018960200135815260200189604001358152602001896060016020810190610a43919061507a565b60020b8152602001610a5b60a08b0160808c0161507a565b60020b8152602001858152506040518263ffffffff1660e01b8152600401610a8391906159f3565b608060405180830381600087803b158015610a9d57600080fd5b505af1158015610ab1573d6000803e3d6000fd5b505050506040513d601f19601f82011682018060405250810190610ad59190615132565b90508560a00135816000015110158015610af757508560c00135816020015110155b610b1c5760405162461bcd60e51b8152600401610b139061594f565b60405180910390fd5b61016a546001600160a01b031663beb56a7584610b3c60208a018a614dfe565b8451610b4790612e2e565b600003610b578660200151612e2e565b600003610b678760400151612e2e565b6040518663ffffffff1660e01b8152600401610b87959493929190615585565b600060405180830381600087803b158015610ba157600080fd5b505af1158015610bb5573d6000803e3d6000fd5b50505050610bc283612e76565b604051806080016040528082600001518152602001826020015181526020018260400151815260200182606001516001600160801b031681525094505050505b5060018055919050565b610162546001600160a01b031681565b6001600160a01b038116600090815261016c602052604090205462ffffff165b919050565b600054610100900460ff1680610c5a5750610c5a612f26565b80610c68575060005460ff16155b610ca35760405162461bcd60e51b815260040180806020018281038252602e815260200180615cc7602e913960400191505060405180910390fd5b600054610100900460ff16158015610cce576000805460ff1961ff0019909116610100171660011790555b610ce0876001600160a01b0316612f37565b610cfc5760405162461bcd60e51b8152600401610b13906158a8565b610d0e866001600160a01b0316612f37565b610d2a5760405162461bcd60e51b8152600401610b13906156d8565b610d3c856001600160a01b0316612f37565b610d585760405162461bcd60e51b8152600401610b13906157a0565b846001600160a01b031663313ce5676040518163ffffffff1660e01b815260040160206040518083038186803b158015610d9157600080fd5b505afa158015610da5573d6000803e3d6000fd5b505050506040513d601f19601f82011682018060405250810190610dc9919061547d565b60ff16601214610deb5760405162461bcd60e51b8152600401610b1390615677565b610dfd846001600160a01b0316612f37565b610e195760405162461bcd60e51b8152600401610b139061573c565b610e2b886001600160a01b0316612f37565b610e475760405162461bcd60e51b8152600401610b1390615805565b610e59826001600160a01b0316612f37565b610e755760405162461bcd60e51b8152600401610b139061571b565b610e87836001600160a01b0316612f37565b610ea35760405162461bcd60e51b8152600401610b1390615826565b6000836001600160a01b031663776af5ba6040518163ffffffff1660e01b815260040160206040518083038186803b158015610ede57600080fd5b505afa158015610ef2573d6000803e3d6000fd5b505050506040513d601f19601f82011682018060405250810190610f169190614e1a565b9050610f2a816001600160a01b0316612f37565b610f465760405162461bcd60e51b8152600401610b1390615846565b610f4e612f3d565b610f56612fe6565b61016580546001600160a01b03199081166001600160a01b038c811691909117909255610166805482168b84161790819055610167805483168b8516179055610162805483168a851617905561016380548316898516179055610168805483168885161790556101698054831685851617905561016a8054909216868416179091556040805163313ce56760e01b81529051919092169163313ce567916004828101926020929190829003018186803b15801561101257600080fd5b505afa158015611026573d6000803e3d6000fd5b505050506040513d601f19601f8201168201806040525081019061104a919061547d565b610163805460ff92909216600160a01b0260ff60a01b19909216919091179055604080518082019091526005808252640322e302e360dc1b60209092019182526110979161016491614c9c565b505080156110ab576000805461ff00191690555b5050505050505050565b6110bd6129d0565b6001600160a01b03166110ce611add565b6001600160a01b031614611112576040805162461bcd60e51b8152602060048201526006602482015265534f5f434e4f60d01b604482015290519081900360640190fd5b61111a613083565b565b610164805460408051602060026001851615610100026000190190941693909304601f810184900484028201840190925281815292918301828280156111a35780601f10611178576101008083540402835291602001916111a3565b820191906000526020600020905b81548152906001019060200180831161118657829003601f168201915b505050505081565b61012f546001600160a01b0390811691161490565b61016a546040516315f53c9b60e11b8152600091611266916001600160a01b0390911690632bea7936906111f89086906004016154ad565b60206040518083038186803b15801561121057600080fd5b505afa158015611224573d6000803e3d6000fd5b505050506040513d601f19601f8201168201806040525081019061124891906150b2565b61016354600160a01b900460ff1661125f85613123565b9190613247565b92915050565b610163546001600160a01b031681565b60cb5460ff165b90565b61128e6129d0565b6001600160a01b031661129f611add565b6001600160a01b0316146112e3576040805162461bcd60e51b8152602060048201526006602482015265534f5f434e4f60d01b604482015290519081900360640190fd5b6112f5826001600160a01b0316612f37565b6113115760405162461bcd60e51b8152600401610b1390615826565b61131a82612927565b620d89e862ffffff821611156113425760405162461bcd60e51b8152600401610b13906157e1565b6001600160a01b0391909116600090815261016c60205260409020805462ffffff191662ffffff909216919091179055565b6098546001600160a01b031690565b61138b6129d0565b6001600160a01b031661139c611add565b6001600160a01b0316146113e0576040805162461bcd60e51b8152602060048201526006602482015265534f5f434e4f60d01b604482015290519081900360640190fd5b6097546040516000916001600160a01b031690600080516020615d16833981519152908390a3609780546001600160a01b0319908116909155609880549091169055565b610169546001600160a01b031681565b61012f546001600160a01b031681565b61144c61127c565b15611491576040805162461bcd60e51b815260206004820152601060248201526f14185d5cd8589b194e881c185d5cd95960821b604482015290519081900360640190fd5b600260015414156114d7576040805162461bcd60e51b815260206004820152601f6024820152600080516020615c66833981519152604482015290519081900360640190fd5b600260018190555061151d848484848080602002602001604051908101604052809392919081815260200183836020028082843760009201919091525061326092505050565b5050600180555050565b61152f6129d0565b6001600160a01b0316611540611add565b6001600160a01b031614611584576040805162461bcd60e51b8152602060048201526006602482015265534f5f434e4f60d01b604482015290519081900360640190fd5b61111a61343d565b61159461127c565b156115d9576040805162461bcd60e51b815260206004820152601060248201526f14185d5cd8589b194e881c185d5cd95960821b604482015290519081900360640190fd5b6002600154141561161f576040805162461bcd60e51b815260206004820152601f6024820152600080516020615c66833981519152604482015290519081900360640190fd5b600260015561162d81612927565b61176761174961174461016560009054906101000a90046001600160a01b03166001600160a01b0316639f044f316040518163ffffffff1660e01b815260040160206040518083038186803b15801561168557600080fd5b505afa158015611699573d6000803e3d6000fd5b505050506040513d601f19601f820116820180604052508101906116bd9190615461565b61016a54604051633666e41760e11b81526001600160a01b0390911690636ccdc82e906116ee9089906004016154ad565b60206040518083038186803b15801561170657600080fd5b505afa15801561171a573d6000803e3d6000fd5b505050506040513d601f19601f8201168201806040525081019061173e91906150b2565b906134c0565b612e2e565b61016354600160a01b900460ff16611760856111c0565b91906134d5565b6117835760405162461bcd60e51b8152600401610b1390615699565b61016a5460405163659e3dc760e11b81526001600160a01b039091169063cb3c7b8e906117b49085906004016154ad565b60206040518083038186803b1580156117cc57600080fd5b505afa1580156117e0573d6000803e3d6000fd5b505050506040513d601f19601f82011682018060405250810190611804919061505e565b156118215760405162461bcd60e51b8152600401610b13906159d3565b61016a54604051631b76e23160e01b81526000916001600160a01b031690631b76e2319061185590869086906004016154c1565b6040805180830381600087803b15801561186e57600080fd5b505af1158015611882573d6000803e3d6000fd5b505050506040513d601f19601f820116820180604052508101906118a691906151a7565b905060006118ef6040518060800160405280866001600160a01b03168152602001856001600160a01b0316815260200160006001600160a01b03168152602001848152506129df565b9050600061198a61016560009054906101000a90046001600160a01b03166001600160a01b031663d0144c6c6040518163ffffffff1660e01b815260040160206040518083038186803b15801561194557600080fd5b505afa158015611959573d6000803e3d6000fd5b505050506040513d601f19601f8201168201806040525081019061197d9190615461565b61173e84606001516134eb565b61016a549091506001600160a01b03166337724702866119a984612e2e565b6000036040518363ffffffff1660e01b81526004016119c99291906155b6565b600060405180830381600087803b1580156119e357600080fd5b505af11580156119f7573d6000803e3d6000fd5b505050506000611a056129d0565b61016a549091506001600160a01b0316633772470282611a2485612e2e565b6040518363ffffffff1660e01b8152600401611a419291906155b6565b600060405180830381600087803b158015611a5b57600080fd5b505af1158015611a6f573d6000803e3d6000fd5b50505050846001600160a01b0316866001600160a01b03167fd9aced30440caca81570436bc942f816cfd95a3f08f700a2aeb6334c7cb5b497611ab586606001516134eb565b8651604051611ac992919088908890615bc6565b60405180910390a350506001805550505050565b6097546001600160a01b031690565b61016a546001600160a01b031681565b600080611b0761127c565b15611b4c576040805162461bcd60e51b815260206004820152601060248201526f14185d5cd8589b194e881c185d5cd95960821b604482015290519081900360640190fd5b60026001541415611b92576040805162461bcd60e51b815260206004820152601f6024820152600080516020615c66833981519152604482015290519081900360640190fd5b600260015560a083015180611ba5612923565b1115611be1576040805162461bcd60e51b81526020600480830191909152602482015263565f544560e01b604482015290519081900360640190fd5b6000611beb6129d0565b9050611bfa8560000151612927565b61016a548551604051633f1cdc8560e21b81526001600160a01b039092169163fc73721491611c2e918591906004016154c1565b600060405180830381600087803b158015611c4857600080fd5b505af1158015611c5c573d6000803e3d6000fd5b505061016a548751604051631b76e23160e01b8152600094506001600160a01b039092169250631b76e23191611c969186916004016154c1565b6040805180830381600087803b158015611caf57600080fd5b505af1158015611cc3573d6000803e3d6000fd5b505050506040513d601f19601f82011682018060405250810190611ce791906151a7565b90506000611cfe838860000151896020015161350e565b1590508015611daf57865161016854604051630507097160e41b8152611d9292916001600160a01b031690635070971090611d3d9084906004016154ad565b60206040518083038186803b158015611d5557600080fd5b505afa158015611d69573d6000803e3d6000fd5b505050506040513d601f19601f82011682018060405250810190611d8d9190615096565b6135c6565b15611daf5760405162461bcd60e51b8152600401610b139061598f565b6000611e29604051806101000160405280866001600160a01b031681526020018a600001516001600160a01b031681526020018a60200151151581526020018a60400151151581526020018a6060015181526020018a60c001516001600160a01b03168152602001600015158152602001858152506136a3565b90508115611e6057611e4388600001518260e001516135c6565b15611e605760405162461bcd60e51b8152600401610b13906159b1565b611ea76040518060a001604052808a60200151151581526020018a604001511515815260200183602001518152602001836000015181526020018a60800151815250612d5b565b60e0880151604051600080516020615ca783398151915290600090a2805160209091015160018055909890975095505050505050565b610167546001600160a01b031681565b61016a546040516303d2da2d60e51b81526000918291612005916001600160a01b031690637a5b45a090611f2790889088906004016154c1565b60206040518083038186803b158015611f3f57600080fd5b505afa158015611f53573d6000803e3d6000fd5b505050506040513d601f19601f82011682018060405250810190611f7791906150b2565b6101695460405163bf0b1abb60e01b8152611fff916001600160a01b03169063bf0b1abb90611faf908a908a9060009060040161553d565b60206040518083038186803b158015611fc757600080fd5b505afa158015611fdb573d6000803e3d6000fd5b505050506040513d601f19601f8201168201806040525081019061174491906150b2565b906137ae565b949350505050565b6098546001600160a01b0316612052576040805162461bcd60e51b81526020600482015260056024820152640534f5f43360dc1b604482015290519081900360640190fd5b61205a6129d0565b6098546001600160a01b039081169116146120a5576040805162461bcd60e51b8152602060048201526006602482015265534f5f434e4360d01b604482015290519081900360640190fd5b6098546097546040516001600160a01b039283169290911690600080516020615d1683398151915290600090a360988054609780546001600160a01b03199081166001600160a01b03841617909155169055565b610165546001600160a01b031681565b61211161127c565b15612156576040805162461bcd60e51b815260206004820152601060248201526f14185d5cd8589b194e881c185d5cd95960821b604482015290519081900360640190fd5b6002600154141561219c576040805162461bcd60e51b815260206004820152601f6024820152600080516020615c66833981519152604482015290519081900360640190fd5b6002600155610169546040516321b499f560e11b81526000916001600160a01b03169063436933ea906121d590869086906004016154c1565b60006040518083038186803b1580156121ed57600080fd5b505afa158015612201573d6000803e3d6000fd5b505050506040513d6000823e601f3d908101601f191682016040526122299190810190614fbe565b9050612236838383613260565b50506001805550565b612247614d24565b61224f61127c565b15612294576040805162461bcd60e51b815260206004820152601060248201526f14185d5cd8589b194e881c185d5cd95960821b604482015290519081900360640190fd5b600260015414156122da576040805162461bcd60e51b815260206004820152601f6024820152600080516020615c66833981519152604482015290519081900360640190fd5b600260015560c0820135806122ed612923565b1115612329576040805162461bcd60e51b81526020600480830191909152602482015263565f544560e01b604482015290519081900360640190fd5b6123396104ce6020850185614dfe565b6123cd6040518060a0016040528061234f6129d0565b6001600160a01b0316815260209081019061236c90870187614dfe565b6001600160a01b0316815260200185602001602081019061238d919061507a565b60020b81526020016123a5606087016040880161507a565b60020b81526020016123bd6080870160608801615445565b6001600160801b03169052613813565b915082608001358260000151101580156123ef57508260a00135826020015110155b610c025760405162461bcd60e51b8152600401610b139061594f565b610168546001600160a01b031681565b610169546001600160a01b03166124306129d0565b6001600160a01b0316146124565760405162461bcd60e51b8152600401610b1390615867565b6000612464828401846151ee565b9050841561256c57600081602001516001600160a01b0316630dfe16816040518163ffffffff1660e01b815260040160206040518083038186803b1580156124ab57600080fd5b505afa1580156124bf573d6000803e3d6000fd5b505050506040513d601f19601f820116820180604052508101906124e39190614e1a565b602083015160405163a9059cbb60e01b81529192506001600160a01b0383169163a9059cbb91612517918a906004016155b6565b602060405180830381600087803b15801561253157600080fd5b505af1158015612545573d6000803e3d6000fd5b505050506040513d601f19601f82011682018060405250810190612569919061505e565b50505b831561267257600081602001516001600160a01b031663d21220a76040518163ffffffff1660e01b815260040160206040518083038186803b1580156125b157600080fd5b505afa1580156125c5573d6000803e3d6000fd5b505050506040513d601f19601f820116820180604052508101906125e99190614e1a565b602083015160405163a9059cbb60e01b81529192506001600160a01b0383169163a9059cbb9161261d9189906004016155b6565b602060405180830381600087803b15801561263757600080fd5b505af115801561264b573d6000803e3d6000fd5b505050506040513d601f19601f8201168201806040525081019061266f919061505e565b50505b5050505050565b6126816129d0565b6001600160a01b0316612692611add565b6001600160a01b0316146126d6576040805162461bcd60e51b8152602060048201526006602482015265534f5f434e4f60d01b604482015290519081900360640190fd5b6126e8816001600160a01b0316612f37565b6127045760405162461bcd60e51b8152600401610b1390615826565b61270d816139f0565b50565b610168546001600160a01b03166127256129d0565b6001600160a01b03161461274b5760405162461bcd60e51b8152600401610b13906156b9565b600084138061275a5750600083135b6127765760405162461bcd60e51b8152600401610b13906157c1565b60006127848284018461534e565b604081015190915060008080881361280d57826001600160a01b031663d21220a76040518163ffffffff1660e01b815260040160206040518083038186803b1580156127cf57600080fd5b505afa1580156127e3573d6000803e3d6000fd5b505050506040513d601f19601f820116820180604052508101906128079190614e1a565b87612880565b826001600160a01b0316630dfe16816040518163ffffffff1660e01b815260040160206040518083038186803b15801561284657600080fd5b505afa15801561285a573d6000803e3d6000fd5b505050506040513d601f19601f8201168201806040525081019061287e9190614e1a565b885b91509150816001600160a01b031663a9059cbb8560400151836040518363ffffffff1660e01b81526004016128b69291906155b6565b602060405180830381600087803b1580156128d057600080fd5b505af11580156128e4573d6000803e3d6000fd5b505050506040513d601f19601f82011682018060405250810190612908919061505e565b505050505050505050565b610166546001600160a01b031681565b4290565b6101685460405163bbe4f6db60e01b81526000916001600160a01b03169063bbe4f6db906129599085906004016154ad565b60206040518083038186803b15801561297157600080fd5b505afa158015612985573d6000803e3d6000fd5b505050506040513d601f19601f820116820180604052508101906129a99190614e1a565b6001600160a01b0316141561270d5760405162461bcd60e51b8152600401610b1390615887565b60006129da613a8b565b905090565b6129e7614d45565b61016a54825160208401516040516346d12ddf60e11b81526000936001600160a01b031692638da25bbe92612a1e926004016154c1565b60206040518083038186803b158015612a3657600080fd5b505afa158015612a4a573d6000803e3d6000fd5b505050506040513d601f19601f82011682018060405250810190612a6e91906150b2565b905080612a8d5760405162461bcd60e51b8152600401610b139061596f565b6000808213612a9d576000612aa0565b60015b905060006040518060a0016040528086602001516001600160a01b0316815260200183151581526020018315158152602001612adb856134eb565b8152602001612aef87602001518515613abd565b6001600160a01b03168152509050600061016560009054906101000a90046001600160a01b03166001600160a01b0316633fa7ffc76040518163ffffffff1660e01b815260040160206040518083038186803b158015612b4e57600080fd5b505afa158015612b62573d6000803e3d6000fd5b505050506040513d601f19601f82011682018060405250810190612b869190615461565b602087015161016854604051630507097160e41b8152929350612bc3926001600160a01b0390911690635070971090611d3d9084906004016154ad565b80612c2f57506020860151610168546040516279d61560e81b8152612c2f92916001600160a01b0316906379d6150090612c01908790600401615b00565b602060405180830381600087803b158015612c1b57600080fd5b505af1158015611d69573d6000803e3d6000fd5b15612cd15785516001600160a01b03908116600090815261016b60209081526040808320828b015190941683529290522054612c69612923565b1415612c875760405162461bcd60e51b8152600401610b139061592d565b612c8f612923565b86516001600160a01b03908116600090815261016b60209081526040808320828c0151909416835292905220556060820151612ccb90826134c0565b60608301525b612d5160405180610100016040528088600001516001600160a01b0316815260200188602001516001600160a01b031681526020018460200151151581526020018460400151151581526020018460600151815260200188604001516001600160a01b0316815260200160011515815260200188606001518152506136a3565b9695505050505050565b6080810151612d695761270d565b805115612dd457806020015115612da757806080015181604001511015612da25760405162461bcd60e51b8152600401610b13906158ea565b612dcf565b806080015181606001511115612dcf5760405162461bcd60e51b8152600401610b13906156fa565b61270d565b806020015115612e0657806080015181606001511015612dcf5760405162461bcd60e51b8152600401610b13906158c9565b80608001518160400151111561270d5760405162461bcd60e51b8152600401610b139061575d565b6000600160ff1b8210612e725760405162461bcd60e51b8152600401808060200182810382526028815260200180615d5d6028913960400191505060405180910390fd5b5090565b6000612f088261016560009054906101000a90046001600160a01b03166001600160a01b0316632f60a1516040518163ffffffff1660e01b815260040160206040518083038186803b158015612ecb57600080fd5b505afa158015612edf573d6000803e3d6000fd5b505050506040513d601f19601f82011682018060405250810190612f039190615461565b613b8a565b121561270d5760405162461bcd60e51b8152600401610b139061577e565b6000612f3130612f37565b15905090565b3b151590565b600054610100900460ff1680612f565750612f56612f26565b80612f64575060005460ff16155b612f9f5760405162461bcd60e51b815260040180806020018281038252602e815260200180615cc7602e913960400191505060405180910390fd5b600054610100900460ff16158015612fca576000805460ff1961ff0019909116610100171660011790555b612fd2613c0e565b801561270d576000805461ff001916905550565b600054610100900460ff1680612fff5750612fff612f26565b8061300d575060005460ff16155b6130485760405162461bcd60e51b815260040180806020018281038252602e815260200180615cc7602e913960400191505060405180910390fd5b600054610100900460ff16158015613073576000805460ff1961ff0019909116610100171660011790555b61307b613cb3565b612fd2613da2565b61308b61127c565b6130d3576040805162461bcd60e51b815260206004820152601460248201527314185d5cd8589b194e881b9bdd081c185d5cd95960621b604482015290519081900360640190fd5b60cb805460ff191690557f5db9ee0a495bf2e6ff9c91a7834c1ba4fdd244a5e8aa4e537bd38aeae4b073aa6131066129d0565b604080516001600160a01b039092168252519081900360200190a1565b61016a5460405163ca28b89160e01b815260009182916001600160a01b039091169063ca28b891906131599086906004016154ad565b60206040518083038186803b15801561317157600080fd5b505afa158015613185573d6000803e3d6000fd5b505050506040513d601f19601f820116820180604052508101906131a991906150b2565b61016354610166546040516370a0823160e01b8152929350613240928492600160a01b900460ff16916001600160a01b0316906370a08231906131f09089906004016154ad565b60206040518083038186803b15801561320857600080fd5b505afa15801561321c573d6000803e3d6000fd5b505050506040513d601f19601f8201168201806040525081019061125f91906150b2565b9392505050565b600061200561325a84611fff8786613e3f565b83613e55565b61326982612927565b60006132be8461016560009054906101000a90046001600160a01b03166001600160a01b0316639f044f316040518163ffffffff1660e01b815260040160206040518083038186803b158015612ecb57600080fd5b126132db5760405162461bcd60e51b8152600401610b139061590b565b61016a54604051631b76e23160e01b81526001600160a01b0390911690631b76e2319061330e90869086906004016154c1565b6040805180830381600087803b15801561332757600080fd5b505af115801561333b573d6000803e3d6000fd5b505050506040513d601f19601f8201168201806040525081019061335f91906151a7565b506101695460405163398dbcfd60e01b81526000916001600160a01b03169063398dbcfd90613396908790879087906004016154db565b606060405180830381600087803b1580156133b057600080fd5b505af11580156133c4573d6000803e3d6000fd5b505050506040513d601f19601f820116820180604052508101906133e891906152fa565b90506134376040518060a00160405280866001600160a01b03168152602001856001600160a01b0316815260200183600001518152602001836020015181526020018360400151815250613e6b565b50505050565b61344561127c565b1561348a576040805162461bcd60e51b815260206004820152601060248201526f14185d5cd8589b194e881c185d5cd95960821b604482015290519081900360640190fd5b60cb805460ff191660011790557f62e78cea01bee320cd4e420270b5ea74000d11b0c9f74754ebdbfc544b05a2586131066129d0565b6000613240838362ffffff16620f4240613f68565b6000826134e28584613e3f565b12949350505050565b60008082136135055761350082600003614017565b611266565b61126682614017565b61016a546040516346d12ddf60e11b815260009182916001600160a01b0390911690638da25bbe9061354690889088906004016154c1565b60206040518083038186803b15801561355e57600080fd5b505afa158015613572573d6000803e3d6000fd5b505050506040513d601f19601f8201168201806040525081019061359691906150b2565b905060008082126135a85760006135ab565b60015b9050811580612d515750831515811515149695505050505050565b6001600160a01b038216600090815261016c602052604081205462ffffff16806135f4576000915050611266565b61016854604051630368366760e21b81526000916001600160a01b031690630da0d99c906136269088906004016154ad565b60206040518083038186803b15801561363e57600080fd5b505afa158015613652573d6000803e3d6000fd5b505050506040513d601f19601f820116820180604052508101906136769190615096565b9050818101828203600281810b9087900b128061369857508160020b8660020b135b979650505050505050565b6136ab614d45565b60006137236040518060e0016040528085600001516001600160a01b0316815260200185602001516001600160a01b03168152602001856040015115158152602001856060015115158152602001856080015181526020018560a001516001600160a01b031681526020018560e0015181525061406e565b90508260c0015161373957825161373990612e76565b82602001516001600160a01b031683600001516001600160a01b03167fd50383521b86aced5c8a23f3e6249ed36a8419e9408218e2d712a69ec3710be08360400151846060015185608001518660a001518760c001516040516137a0959493929190615601565b60405180910390a392915050565b60008282018183128015906137c35750838112155b806137d857506000831280156137d857508381125b6132405760405162461bcd60e51b8152600401808060200182810382526021815260200180615c866021913960400191505060405180910390fd5b61381b614d24565b61016a5482516020840151604051631b76e23160e01b81526001600160a01b0390931692631b76e231926138539290916004016154c1565b6040805180830381600087803b15801561386c57600080fd5b505af1158015613880573d6000803e3d6000fd5b505050506040513d601f19601f820116820180604052508101906138a491906151a7565b50610169546040805160a08101825284516001600160a01b03908116825260208087015182169083015285830151600290810b8385015260608088015190910b908301526080808701516001600160801b0316908301529151635b778b9d60e01b81526000939290921691635b778b9d9161392191600401615a88565b606060405180830381600087803b15801561393b57600080fd5b505af115801561394f573d6000803e3d6000fd5b505050506040513d601f19601f8201168201806040525081019061397391906152fa565b90506139ca6040518060a0016040528085600001516001600160a01b0316815260200185602001516001600160a01b0316815260200183600001518152602001836020015181526020018360400151815250613e6b565b604080516060810182528251815260208084015190820152918101519082015292915050565b6001600160a01b038116613a36576040805162461bcd60e51b81526020600482015260086024820152674252435f4954464160c01b604482015290519081900360640190fd5b61012f80546001600160a01b0383166001600160a01b0319909116811790915560408051918252517fa4388ecc389b1390354ae0c65a856c0d7dd4fb648419f5d3ac0b99e38f46fd119181900360200190a150565b600060183610801590613aa25750613aa2336111ab565b15613ab6575060131936013560601c611283565b5033611283565b61016854604051630368366760e21b815260009182916001600160a01b0390911690630da0d99c90613af39087906004016154ad565b60206040518083038186803b158015613b0b57600080fd5b505afa158015613b1f573d6000803e3d6000fd5b505050506040513d601f19601f82011682018060405250810190613b439190615096565b6001600160a01b038516600090815261016c602052604081205491925062ffffff9091169084613b7857600182840303613b7f565b8183016001015b9050612d51816142b3565b61016654604051633ffd130360e01b81526000916001600160a01b031690633ffd130390613bbe90869086906004016155cf565b60206040518083038186803b158015613bd657600080fd5b505afa158015613bea573d6000803e3d6000fd5b505050506040513d601f19601f8201168201806040525081019061324091906150b2565b600054610100900460ff1680613c275750613c27612f26565b80613c35575060005460ff16155b613c705760405162461bcd60e51b815260040180806020018281038252602e815260200180615cc7602e913960400191505060405180910390fd5b600054610100900460ff16158015613c9b576000805460ff1961ff0019909116610100171660011790555b60018055801561270d576000805461ff001916905550565b600054610100900460ff1680613ccc5750613ccc612f26565b80613cda575060005460ff16155b613d155760405162461bcd60e51b815260040180806020018281038252602e815260200180615cc7602e913960400191505060405180910390fd5b600054610100900460ff16158015613d40576000805460ff1961ff0019909116610100171660011790555b613d486145da565b6000613d526129d0565b609780546001600160a01b0319166001600160a01b03831690811790915560405191925090600090600080516020615d16833981519152908290a350801561270d576000805461ff001916905550565b600054610100900460ff1680613dbb5750613dbb612f26565b80613dc9575060005460ff16155b613e045760405162461bcd60e51b815260040180806020018281038252602e815260200180615cc7602e913960400191505060405180910390fd5b600054610100900460ff16158015613e2f576000805460ff1961ff0019909116610100171660011790555b613e3761466b565b612fd261470b565b60006132408360ff601285900316600a0a6147b6565b60006132408360ff601285900316600a0a61485f565b61016a548151602083015160408401516001600160a01b039093169263beb56a75929190613e9890612e2e565b613ea58660600151612e2e565b613eb28760800151612e2e565b6040518663ffffffff1660e01b8152600401613ed2959493929190615585565b600060405180830381600087803b158015613eec57600080fd5b505af1158015613f00573d6000803e3d6000fd5b505061016a548351602085015160405163fa8e30af60e01b81526001600160a01b03909316945063fa8e30af9350613f3a926004016154c1565b600060405180830381600087803b158015613f5457600080fd5b505af1158015612672573d6000803e3d6000fd5b6000808060001985870986860292508281109083900303905080613f9e5760008411613f9357600080fd5b508290049050613240565b808411613faa57600080fd5b6000848688096000868103871696879004966002600389028118808a02820302808a02820302808a02820302808a02820302808a02820302808a02909103029181900381900460010186841190950394909402919094039290920491909117919091029150509392505050565b600080821215612e72576040805162461bcd60e51b815260206004820181905260248201527f53616665436173743a2076616c7565206d75737420626520706f736974697665604482015290519081900360640190fd5b614076614d45565b61016a54825160208401516040516346d12ddf60e11b81526000936001600160a01b031692638da25bbe926140ad926004016154c1565b60206040518083038186803b1580156140c557600080fd5b505afa1580156140d9573d6000803e3d6000fd5b505050506040513d601f19601f820116820180604052508101906140fd91906150b2565b9050600061411384600001518560200151611eed565b9050600061412e85600001518660200151876040015161350e565b9050600061413b86614917565b905061414f86600001518760200151611eed565b60a0820152816142aa5760008061417b8360000151670de0b6b3a7640000614176896134eb565b613f68565b90506000886040015161419d576141958460200151612e2e565b6000036141aa565b6141aa8460200151612e2e565b9050670de0b6b3a764000082116141ec5760006141d86141d36141cc85612e2e565b89906147b6565b614b89565b90506141e482826137ae565b935050614222565b60006142126141fa84612e2e565b61420c84670de0b6b3a76400006147b6565b9061485f565b905061421e87826137ae565b9350505b61423589600001518a6020015185614b9d565b60c0840183905261016a54895160208b015160405163fa8e30af60e01b81526001600160a01b039093169263fa8e30af926142749290916004016154c1565b600060405180830381600087803b15801561428e57600080fd5b505af11580156142a2573d6000803e3d6000fd5b505050505050505b95945050505050565b60008060008360020b126142ca578260020b6142d2565b8260020b6000035b9050620d89e8811115614310576040805162461bcd60e51b81526020600482015260016024820152601560fa1b604482015290519081900360640190fd5b60006001821661432457600160801b614336565b6ffffcb933bd6fad37aa2d162d1a5940015b6001600160881b031690506002821615614360576ffff97272373d413259a46990580e213a0260801c5b600482161561437f576ffff2e50f5f656932ef12357cf3c7fdcc0260801c5b600882161561439e576fffe5caca7e10e4e61c3624eaa0941cd00260801c5b60108216156143bd576fffcb9843d60f6159c9db58835c9266440260801c5b60208216156143dc576fff973b41fa98c081472e6896dfb254c00260801c5b60408216156143fb576fff2ea16466c96a3843ec78b326b528610260801c5b608082161561441a576ffe5dee046a99a2a811c461f1969c30530260801c5b61010082161561443a576ffcbe86c7900a88aedcffc83b479aa3a40260801c5b61020082161561445a576ff987a7253ac413176f2b074cf7815e540260801c5b61040082161561447a576ff3392b0822b70005940c7a398e4b70f30260801c5b61080082161561449a576fe7159475a2c29b7443b29c7fa6e889d90260801c5b6110008216156144ba576fd097f3bdfd2022b8845ad8f792aa58250260801c5b6120008216156144da576fa9f746462d870fdf8a65dc1f90e061e50260801c5b6140008216156144fa576f70d869a156d2a1b890bb3df62baf32f70260801c5b61800082161561451a576f31be135f97d08fd981231505542fcfa60260801c5b6201000082161561453b576f09aa508b5b7a84e1c677de54f3e99bc90260801c5b6202000082161561455b576e5d6af8dedb81196699c329225ee6040260801c5b6204000082161561457a576d2216e584f5fa1ea926041bedfe980260801c5b62080000821615614597576b048a170391f7dc42444e8fa20260801c5b60008460020b13156145b25780600019816145ae57fe5b0490505b600160201b8106156145c55760016145c8565b60005b60ff16602082901c0192505050919050565b600054610100900460ff16806145f357506145f3612f26565b80614601575060005460ff16155b61463c5760405162461bcd60e51b815260040180806020018281038252602e815260200180615cc7602e913960400191505060405180910390fd5b600054610100900460ff16158015614667576000805460ff1961ff0019909116610100171660011790555b612fd25b600054610100900460ff16806146845750614684612f26565b80614692575060005460ff16155b6146cd5760405162461bcd60e51b815260040180806020018281038252602e815260200180615cc7602e913960400191505060405180910390fd5b600054610100900460ff16158015612fd2576000805460ff1961ff001990911661010017166001179055801561270d576000805461ff001916905550565b600054610100900460ff16806147245750614724612f26565b80614732575060005460ff16155b61476d5760405162461bcd60e51b815260040180806020018281038252602e815260200180615cc7602e913960400191505060405180910390fd5b600054610100900460ff16158015614798576000805460ff1961ff0019909116610100171660011790555b60cb805460ff19169055801561270d576000805461ff001916905550565b6000826147c557506000611266565b826000191480156147d95750600160ff1b82145b156148155760405162461bcd60e51b8152600401808060200182810382526027815260200180615d366027913960400191505060405180910390fd5b8282028284828161482257fe5b05146132405760405162461bcd60e51b8152600401808060200182810382526027815260200180615d366027913960400191505060405180910390fd5b6000816148b3576040805162461bcd60e51b815260206004820181905260248201527f5369676e6564536166654d6174683a206469766973696f6e206279207a65726f604482015290519081900360640190fd5b816000191480156148c75750600160ff1b83145b156149035760405162461bcd60e51b8152600401808060200182810382526021815260200180615cf56021913960400191505060405180910390fd5b600082848161490e57fe5b05949350505050565b61491f614d45565b610168546040805160e08101825284516001600160a01b039081168252602080870151821690830152858301511515828401526060808701511515908301526080808701519083015260a08087015182169083015260c08087015190830152915163291ff68560e11b8152600093929092169163523fed0a916149a491600401615b45565b60a060405180830381600087803b1580156149be57600080fd5b505af11580156149d2573d6000803e3d6000fd5b505050506040513d601f19601f820116820180604052508101906149f691906153d7565b61016a5484516020860151835160408501519495506001600160a01b039093169363beb56a759390614a3690614a2b90612e2e565b602088015190614c0f565b60006040518663ffffffff1660e01b8152600401614a58959493929190615585565b600060405180830381600087803b158015614a7257600080fd5b505af1158015614a86573d6000803e3d6000fd5b505061016a546101675460608501516001600160a01b03928316945063377247029350911690614ab590612e2e565b6040518363ffffffff1660e01b8152600401614ad29291906155b6565b600060405180830381600087803b158015614aec57600080fd5b505af1158015614b00573d6000803e3d6000fd5b50505050604051806101000160405280614b1d83600001516134eb565b8152602001614b45614b40614b358560400151612e2e565b602086015190614c0f565b6134eb565b81526020018260000151815260200182602001518152602001826040015181526020016000815260200160008152602001826080015160020b815250915050919050565b600061126682670de0b6b3a764000061485f565b80614ba757614c0a565b61016a5460405163f0c7979760e01b81526001600160a01b039091169063f0c7979790614bdc90869086908690600401615561565b600060405180830381600087803b158015614bf657600080fd5b505af115801561266f573d6000803e3d6000fd5b505050565b6000818303818312801590614c245750838113155b80614c395750600083128015614c3957508381135b6132405760405162461bcd60e51b8152600401808060200182810382526024815260200180615d856024913960400191505060405180910390fd5b6040518060800160405280600081526020016000815260200160008152602001600081525090565b828054600181600116156101000203166002900490600052602060002090601f016020900481019282614cd25760008555614d18565b82601f10614ceb57805160ff1916838001178555614d18565b82800160010185558215614d18579182015b82811115614d18578251825591602001919060010190614cfd565b50612e72929150614d8d565b60405180606001604052806000815260200160008152602001600081525090565b60405180610100016040528060008152602001600081526020016000815260200160008152602001600081526020016000815260200160008152602001600060020b81525090565b5b80821115612e725760008155600101614d8e565b8035610c3c81615c0d565b8035610c3c81615c22565b60008083601f840112614dc9578182fd5b5081356001600160401b03811115614ddf578182fd5b602083019150836020828501011115614df757600080fd5b9250929050565b600060208284031215614e0f578081fd5b813561324081615c0d565b600060208284031215614e2b578081fd5b815161324081615c0d565b60008060408385031215614e48578081fd5b8235614e5381615c0d565b91506020830135614e6381615c0d565b809150509250929050565b600080600080600080600060e0888a031215614e88578283fd5b8735614e9381615c0d565b96506020880135614ea381615c0d565b95506040880135614eb381615c0d565b94506060880135614ec381615c0d565b93506080880135614ed381615c0d565b925060a0880135614ee381615c0d565b915060c0880135614ef381615c0d565b8091505092959891949750929550565b60008060008060608587031215614f18578182fd5b8435614f2381615c0d565b93506020850135614f3381615c0d565b925060408501356001600160401b0380821115614f4e578384fd5b818701915087601f830112614f61578384fd5b813581811115614f6f578485fd5b8860208083028501011115614f82578485fd5b95989497505060200194505050565b60008060408385031215614fa3578182fd5b8235614fae81615c0d565b91506020830135614e6381615c54565b60006020808385031215614fd0578182fd5b82516001600160401b0380821115614fe6578384fd5b818501915085601f830112614ff9578384fd5b81518181111561500557fe5b8381029150615015848301615bea565b8181528481019084860184860187018a101561502f578788fd5b8795505b83861015615051578051835260019590950194918601918601615033565b5098975050505050505050565b60006020828403121561506f578081fd5b815161324081615c22565b60006020828403121561508b578081fd5b813561324081615c30565b6000602082840312156150a7578081fd5b815161324081615c30565b6000602082840312156150c3578081fd5b5051919050565b600080600080606085870312156150df578182fd5b843593506020850135925060408501356001600160401b03811115615102578283fd5b61510e87828801614db8565b95989497509550505050565b6000610100828403121561512c578081fd5b50919050565b600060808284031215615143578081fd5b604051608081016001600160401b038111828210171561515f57fe5b8060405250825181526020830151602082015260408301516040820152606083015161518a81615c3f565b60608201529392505050565b600060a0828403121561512c578081fd5b6000604082840312156151b8578081fd5b604080519081016001600160401b03811182821017156151d457fe5b604052825181526020928301519281019290925250919050565b6000604082840312156151ff578081fd5b604080519081016001600160401b038111828210171561521b57fe5b604052823561522981615c0d565b8152602083013561523981615c0d565b60208201529392505050565b6000610100808385031215615258578182fd5b604051908101906001600160401b038211818310171561527457fe5b8160405261528184614da2565b815261528f60208501614dad565b60208201526152a060408501614dad565b6040820152606084013560608201526080840135608082015260a084013560a08201526152cf60c08501614da2565b60c082015260e084013560e0820152809250505092915050565b600060e0828403121561512c578081fd5b60006060828403121561530b578081fd5b604051606081016001600160401b038111828210171561532757fe5b80604052508251815260208301516020820152604083015160408201528091505092915050565b600060a0828403121561535f578081fd5b60405160a081016001600160401b038111828210171561537b57fe5b604052823561538981615c0d565b8152602083013561539981615c0d565b602082015260408301356153ac81615c0d565b604082015260608301356153bf81615c54565b60608201526080928301359281019290925250919050565b600060a082840312156153e8578081fd5b60405160a081016001600160401b038111828210171561540457fe5b806040525082518152602083015160208201526040830151604082015260608301516060820152608083015161543981615c30565b60808201529392505050565b600060208284031215615456578081fd5b813561324081615c3f565b600060208284031215615472578081fd5b815161324081615c54565b60006020828403121561548e578081fd5b815160ff81168114613240578182fd5b80518252602090810151910152565b6001600160a01b0391909116815260200190565b6001600160a01b0392831681529116602082015260400190565b6001600160a01b0384811682528316602080830191909152606060408301819052835190830181905260009184810191608085019190845b8181101561552f57845184529382019392820192600101615513565b509198975050505050505050565b6001600160a01b039384168152919092166020820152901515604082015260600190565b6001600160a01b039384168152919092166020820152604081019190915260600190565b6001600160a01b03958616815293909416602084015260408301919091526060820152608081019190915260a00190565b6001600160a01b03929092168252602082015260400190565b6001600160a01b0392909216825262ffffff16602082015260400190565b901515815260200190565b90815260200190565b948552602085019390935260408401919091526060830152608082015260a00190565b6000602080835283518082850152825b8181101561565057858101830151858201604001528201615634565b818111156156615783604083870101525b50601f01601f1916929092016040019392505050565b60208082526008908201526708690bea2889c62760c31b604082015260600190565b60208082526006908201526521a42fa2a0ab60d11b604082015260600190565b60208082526005908201526443485f4f4560d81b604082015260600190565b60208082526008908201526743485f4946414e4360c01b604082015260600190565b60208082526007908201526643485f544d525360c81b604082015260600190565b60208082526007908201526643485f41424e4360c81b604082015260600190565b60208082526007908201526643485f55414e4360c81b604082015260600190565b60208082526007908201526610d217d513549360ca1b604082015260600190565b60208082526008908201526743485f4e4546434960c01b604082015260600190565b60208082526007908201526643485f51414e4360c81b604082015260600190565b60208082526006908201526543485f46305360d01b604082015260600190565b6020808252600a908201526921a42fa6aa21a627a7a960b11b604082015260600190565b60208082526007908201526643485f43434e4360c81b604082015260600190565b60208082526006908201526543485f414e4360d01b604082015260600190565b60208082526007908201526643485f4f424e4360c81b604082015260600190565b60208082526006908201526521a42fa727a160d11b604082015260600190565b60208082526007908201526643485f42544e4560c81b604082015260600190565b60208082526007908201526643485f56414e4360c81b604082015260600190565b60208082526007908201526610d217d513149360ca1b604082015260600190565b60208082526007908201526643485f544c525360c81b604082015260600190565b60208082526008908201526743485f4e4546434d60c01b604082015260600190565b60208082526008908201526743485f414f504c4f60c01b604082015260600190565b60208082526006908201526543485f50534360d01b604082015260600190565b60208082526006908201526521a42fa829ad60d11b604082015260600190565b60208082526008908201526743485f4f5049425360c01b604082015260600190565b60208082526008908201526743485f4f5049415360c01b604082015260600190565b60208082526006908201526543485f4e454f60d01b604082015260600190565b60006101008201905060018060a01b03808451168352806020850151166020840152506040830151604083015260608301516060830152608083015160020b608083015260a083015160020b60a083015260c0830151615a5660c084018261549e565b5092915050565b8151815260208083015190820152604080830151908201526060918201519181019190915260800190565b81516001600160a01b03908116825260208084015190911690820152604080830151600290810b9183019190915260608084015190910b908201526080918201516001600160801b03169181019190915260a00190565b81518152602080830151908201526040918201519181019190915260600190565b81516001600160a01b03908116825260208084015115159083015260408084015115159083015260608084015190830152608092830151169181019190915260a00190565b60006101008201905060018060a01b03808451168352806020850151166020840152604084015115156040840152606084015115156060840152608084015160808401528060a08501511660a08401525060c0830151615a5660c084018261549e565b62ffffff91909116815260200190565b918252602082015260400190565b938452602084019290925260408301526001600160a01b0316606082015260800190565b6040518181016001600160401b0381118282101715615c0557fe5b604052919050565b6001600160a01b038116811461270d57600080fd5b801515811461270d57600080fd5b8060020b811461270d57600080fd5b6001600160801b038116811461270d57600080fd5b62ffffff8116811461270d57600080fdfe5265656e7472616e637947756172643a207265656e7472616e742063616c6c005369676e6564536166654d6174683a206164646974696f6e206f766572666c6f7709a07769667a46c2b89124a4d731c76fb5203061073aec16319ba9c6a79a3248496e697469616c697a61626c653a20636f6e747261637420697320616c726561647920696e697469616c697a65645369676e6564536166654d6174683a206469766973696f6e206f766572666c6f778be0079c531659141344cd1fd0a4f28419497f9722a3daafe3b4186f6b6457e05369676e6564536166654d6174683a206d756c7469706c69636174696f6e206f766572666c6f7753616665436173743a2076616c756520646f65736e27742066697420696e20616e20696e743235365369676e6564536166654d6174683a207375627472616374696f6e206f766572666c6f77a264697066735822122073e84a7b75ca5c729d060b06f86991c338d36ca40df08d61abf0458a9cdefdcb64736f6c63430007060033",
  "linkReferences": {},
  "deployedLinkReferences": {}
}