{
  "_format": "hh-sol-artifact-1",
  "contractName": "Exchange",
  "sourceName": "contracts/Exchange.sol",
  "abi": [
    {
      "anonymous": false,
      "inputs": [
        {
          "indexed": true,
          "internalType": "address",
          "name": "clearingHouse",
          "type": "address"
        }
      ],
      "name": "ClearingHouseChanged",
      "type": "event"
    },
    {
      "anonymous": false,
      "inputs": [
        {
          "indexed": true,
          "internalType": "address",
          "name": "trader",
          "type": "address"
        },
        {
          "indexed": true,
          "internalType": "address",
          "name": "baseToken",
          "type": "address"
        },
        {
          "indexed": false,
          "internalType": "int256",
          "name": "fundingPayment",
          "type": "int256"
        }
      ],
      "name": "FundingPaymentSettled",
      "type": "event"
    },
    {
      "anonymous": false,
      "inputs": [
        {
          "indexed": true,
          "internalType": "address",
          "name": "baseToken",
          "type": "address"
        },
        {
          "indexed": false,
          "internalType": "uint256",
          "name": "markTwap",
          "type": "uint256"
        },
        {
          "indexed": false,
          "internalType": "uint256",
          "name": "indexTwap",
          "type": "uint256"
        }
      ],
      "name": "FundingUpdated",
      "type": "event"
    },
    {
      "anonymous": false,
      "inputs": [
        {
          "indexed": true,
          "internalType": "address",
          "name": "previousOwner",
          "type": "address"
        },
        {
          "indexed": true,
          "internalType": "address",
          "name": "newOwner",
          "type": "address"
        }
      ],
      "name": "OwnershipTransferred",
      "type": "event"
    },
    {
      "inputs": [],
      "name": "accountBalance",
      "outputs": [
        {
          "internalType": "address",
          "name": "",
          "type": "address"
        }
      ],
      "stateMutability": "view",
      "type": "function"
    },
    {
      "inputs": [],
      "name": "candidate",
      "outputs": [
        {
          "internalType": "address",
          "name": "",
          "type": "address"
        }
      ],
      "stateMutability": "view",
      "type": "function"
    },
    {
      "inputs": [],
      "name": "clearingHouse",
      "outputs": [
        {
          "internalType": "address",
          "name": "",
          "type": "address"
        }
      ],
      "stateMutability": "view",
      "type": "function"
    },
    {
      "inputs": [
        {
          "internalType": "address",
          "name": "baseToken",
          "type": "address"
        }
      ],
      "name": "getFundingGrowthGlobalAndTwaps",
      "outputs": [
        {
          "components": [
            {
              "internalType": "int256",
              "name": "twPremiumX96",
              "type": "int256"
            },
            {
              "internalType": "int256",
              "name": "twPremiumDivBySqrtPriceX96",
              "type": "int256"
            }
          ],
          "internalType": "struct Funding.Growth",
          "name": "fundingGrowthGlobal",
          "type": "tuple"
        },
        {
          "internalType": "uint256",
          "name": "markTwap",
          "type": "uint256"
        },
        {
          "internalType": "uint256",
          "name": "indexTwap",
          "type": "uint256"
        }
      ],
      "stateMutability": "view",
      "type": "function"
    },
    {
      "inputs": [
        {
          "internalType": "address",
          "name": "baseToken",
          "type": "address"
        }
      ],
      "name": "getLastUpdatedTick",
      "outputs": [
        {
          "internalType": "int24",
          "name": "",
          "type": "int24"
        }
      ],
      "stateMutability": "view",
      "type": "function"
    },
    {
      "inputs": [
        {
          "internalType": "address",
          "name": "trader",
          "type": "address"
        },
        {
          "internalType": "address",
          "name": "baseToken",
          "type": "address"
        },
        {
          "internalType": "int256",
          "name": "baseBalance",
          "type": "int256"
        },
        {
          "internalType": "int256",
          "name": "twPremiumGrowthGlobalX96",
          "type": "int256"
        }
      ],
      "name": "getPendingFundingPayment",
      "outputs": [
        {
          "internalType": "int256",
          "name": "",
          "type": "int256"
        }
      ],
      "stateMutability": "view",
      "type": "function"
    },
    {
      "inputs": [
        {
          "internalType": "address",
          "name": "baseToken",
          "type": "address"
        }
      ],
      "name": "getPool",
      "outputs": [
        {
          "internalType": "address",
          "name": "",
          "type": "address"
        }
      ],
      "stateMutability": "view",
      "type": "function"
    },
    {
      "inputs": [
        {
          "internalType": "address",
          "name": "baseToken",
          "type": "address"
        },
        {
          "internalType": "uint32",
          "name": "twapInterval",
          "type": "uint32"
        }
      ],
      "name": "getSqrtMarkTwapX96",
      "outputs": [
        {
          "internalType": "uint160",
          "name": "",
          "type": "uint160"
        }
      ],
      "stateMutability": "view",
      "type": "function"
    },
    {
      "inputs": [
        {
          "internalType": "address",
          "name": "baseToken",
          "type": "address"
        }
      ],
      "name": "getTick",
      "outputs": [
        {
          "internalType": "int24",
          "name": "",
          "type": "int24"
        }
      ],
      "stateMutability": "view",
      "type": "function"
    },
    {
      "inputs": [
        {
          "internalType": "address",
          "name": "marketRegistryArg",
          "type": "address"
        },
        {
          "internalType": "address",
          "name": "orderBookArg",
          "type": "address"
        }
      ],
      "name": "initialize",
      "outputs": [],
      "stateMutability": "nonpayable",
      "type": "function"
    },
    {
      "inputs": [],
      "name": "marketRegistry",
      "outputs": [
        {
          "internalType": "address",
          "name": "",
          "type": "address"
        }
      ],
      "stateMutability": "view",
      "type": "function"
    },
    {
      "inputs": [],
      "name": "orderBook",
      "outputs": [
        {
          "internalType": "address",
          "name": "",
          "type": "address"
        }
      ],
      "stateMutability": "view",
      "type": "function"
    },
    {
      "inputs": [],
      "name": "owner",
      "outputs": [
        {
          "internalType": "address",
          "name": "",
          "type": "address"
        }
      ],
      "stateMutability": "view",
      "type": "function"
    },
    {
      "inputs": [],
      "name": "renounceOwnership",
      "outputs": [],
      "stateMutability": "nonpayable",
      "type": "function"
    },
    {
      "inputs": [
        {
          "components": [
            {
              "internalType": "address",
              "name": "baseToken",
              "type": "address"
            },
            {
              "internalType": "bool",
              "name": "isBaseToQuote",
              "type": "bool"
            },
            {
              "internalType": "bool",
              "name": "isExactInput",
              "type": "bool"
            },
            {
              "internalType": "uint256",
              "name": "amount",
              "type": "uint256"
            },
            {
              "internalType": "uint160",
              "name": "sqrtPriceLimitX96",
              "type": "uint160"
            }
          ],
          "internalType": "struct Exchange.ReplaySwapParams",
          "name": "params",
          "type": "tuple"
        }
      ],
      "name": "replaySwap",
      "outputs": [
        {
          "internalType": "int24",
          "name": "",
          "type": "int24"
        }
      ],
      "stateMutability": "nonpayable",
      "type": "function"
    },
    {
      "inputs": [
        {
          "internalType": "address",
          "name": "accountBalanceArg",
          "type": "address"
        }
      ],
      "name": "setAccountBalance",
      "outputs": [],
      "stateMutability": "nonpayable",
      "type": "function"
    },
    {
      "inputs": [
        {
          "internalType": "address",
          "name": "clearingHouseArg",
          "type": "address"
        }
      ],
      "name": "setClearingHouse",
      "outputs": [],
      "stateMutability": "nonpayable",
      "type": "function"
    },
    {
      "inputs": [
        {
          "internalType": "address",
          "name": "newOwner",
          "type": "address"
        }
      ],
      "name": "setOwner",
      "outputs": [],
      "stateMutability": "nonpayable",
      "type": "function"
    },
    {
      "inputs": [
        {
          "internalType": "address",
          "name": "trader",
          "type": "address"
        },
        {
          "internalType": "address",
          "name": "baseToken",
          "type": "address"
        },
        {
          "internalType": "int256",
          "name": "baseBalance",
          "type": "int256"
        },
        {
          "internalType": "int256",
          "name": "twPremiumGrowthGlobalX96",
          "type": "int256"
        }
      ],
      "name": "settleFundingAndUpdateFundingGrowth",
      "outputs": [
        {
          "components": [
            {
              "internalType": "int256",
              "name": "twPremiumX96",
              "type": "int256"
            },
            {
              "internalType": "int256",
              "name": "twPremiumDivBySqrtPriceX96",
              "type": "int256"
            }
          ],
          "internalType": "struct Funding.Growth",
          "name": "fundingGrowthGlobal",
          "type": "tuple"
        },
        {
          "internalType": "int256",
          "name": "fundingPayment",
          "type": "int256"
        }
      ],
      "stateMutability": "nonpayable",
      "type": "function"
    },
    {
      "inputs": [
        {
          "components": [
            {
              "internalType": "address",
              "name": "trader",
              "type": "address"
            },
            {
              "internalType": "address",
              "name": "baseToken",
              "type": "address"
            },
            {
              "internalType": "bool",
              "name": "isBaseToQuote",
              "type": "bool"
            },
            {
              "internalType": "bool",
              "name": "isExactInput",
              "type": "bool"
            },
            {
              "internalType": "uint256",
              "name": "amount",
              "type": "uint256"
            },
            {
              "internalType": "uint160",
              "name": "sqrtPriceLimitX96",
              "type": "uint160"
            },
            {
              "components": [
                {
                  "internalType": "int256",
                  "name": "twPremiumX96",
                  "type": "int256"
                },
                {
                  "internalType": "int256",
                  "name": "twPremiumDivBySqrtPriceX96",
                  "type": "int256"
                }
              ],
              "internalType": "struct Funding.Growth",
              "name": "fundingGrowthGlobal",
              "type": "tuple"
            }
          ],
          "internalType": "struct Exchange.SwapParams",
          "name": "params",
          "type": "tuple"
        }
      ],
      "name": "swap",
      "outputs": [
        {
          "components": [
            {
              "internalType": "int256",
              "name": "exchangedPositionSize",
              "type": "int256"
            },
            {
              "internalType": "int256",
              "name": "exchangedPositionNotional",
              "type": "int256"
            },
            {
              "internalType": "uint256",
              "name": "fee",
              "type": "uint256"
            },
            {
              "internalType": "uint256",
              "name": "insuranceFundFee",
              "type": "uint256"
            },
            {
              "internalType": "int24",
              "name": "tick",
              "type": "int24"
            }
          ],
          "internalType": "struct Exchange.SwapResponse",
          "name": "",
          "type": "tuple"
        }
      ],
      "stateMutability": "nonpayable",
      "type": "function"
    },
    {
      "inputs": [
        {
          "internalType": "uint256",
          "name": "amount0Owed",
          "type": "uint256"
        },
        {
          "internalType": "uint256",
          "name": "amount1Owed",
          "type": "uint256"
        },
        {
          "internalType": "bytes",
          "name": "data",
          "type": "bytes"
        }
      ],
      "name": "uniswapV3MintCallback",
      "outputs": [],
      "stateMutability": "nonpayable",
      "type": "function"
    },
    {
      "inputs": [
        {
          "internalType": "int256",
          "name": "amount0Delta",
          "type": "int256"
        },
        {
          "internalType": "int256",
          "name": "amount1Delta",
          "type": "int256"
        },
        {
          "internalType": "bytes",
          "name": "data",
          "type": "bytes"
        }
      ],
      "name": "uniswapV3SwapCallback",
      "outputs": [],
      "stateMutability": "nonpayable",
      "type": "function"
    },
    {
      "inputs": [],
      "name": "updateOwner",
      "outputs": [],
      "stateMutability": "nonpayable",
      "type": "function"
    }
  ],
  "bytecode": "0x608060405234801561001057600080fd5b5061344e806100206000396000f3fe608060405234801561001057600080fd5b506004361061011d5760003560e01c80630af96800146101225780630da0d99c1461014057806313af403514610160578063199387cc146101755780633a5c16cf14610188578063449323d8146101a9578063485cc955146101bc57806350709710146101cf578063523fed0a146101e2578063698cc9a2146102025780636c8381f814610222578063715018a61461022a578063776af5ba1461023257806379d615001461023a5780638da5cb5b1461024d57806399e4a77114610255578063b0a1c1c414610268578063bbe4f6db14610270578063bc5920ba14610283578063d34879971461028b578063ecb96fe61461029e578063f9cbb471146102a6578063fa461e33146102c8575b600080fd5b61012a6102db565b6040516101379190612ed4565b60405180910390f35b61015361014e3660046129c9565b6102ea565b6040516101379190612fd6565b61017361016e3660046129c9565b61030c565b005b6101736101833660046129c9565b610467565b61019b610196366004612a39565b610515565b60405161013792919061314e565b6101736101b73660046129c9565b6106c6565b6101736101ca366004612a01565b61079b565b6101536101dd3660046129c9565b610891565b6101f56101f0366004612d5c565b610923565b6040516101379190613256565b610215610210366004612a39565b610d08565b6040516101379190612fe4565b61012a610dbb565b610173610dca565b61012a610e6b565b610153610248366004612c7c565b610e7a565b61012a611022565b61012a610263366004612a7e565b611031565b61012a6110c5565b61012a61027e3660046129c9565b6110d4565b610173611155565b610173610299366004612bb5565b611241565b61012a6112e9565b6102b96102b43660046129c9565b6112f8565b60405161013793929190613169565b6101736102d6366004612bb5565b6114d0565b6068546001600160a01b031681565b6001600160a01b0381166000908152609d602052604090205460020b5b919050565b610314611670565b6001600160a01b0316610325611022565b6001600160a01b031614610369576040805162461bcd60e51b8152602060048201526006602482015265534f5f434e4f60d01b604482015290519081900360640190fd5b6001600160a01b0381166103ad576040805162461bcd60e51b81526020600482015260066024820152650534f5f4e57360d41b604482015290519081900360640190fd5b6033546001600160a01b03828116911614156103f9576040805162461bcd60e51b8152602060048201526006602482015265534f5f53414f60d01b604482015290519081900360640190fd5b6034546001600160a01b0382811691161415610445576040805162461bcd60e51b8152602060048201526006602482015265534f5f53414360d01b604482015290519081900360640190fd5b603480546001600160a01b0319166001600160a01b0392909216919091179055565b61046f611670565b6001600160a01b0316610480611022565b6001600160a01b0316146104c4576040805162461bcd60e51b8152602060048201526006602482015265534f5f434e4f60d01b604482015290519081900360640190fd5b6001600160a01b0381166104f35760405162461bcd60e51b81526004016104ea90613050565b60405180910390fd5b609c80546001600160a01b0319166001600160a01b0392909216919091179055565b61051d61282e565b609c546000906001600160a01b0316610534611670565b6001600160a01b03161461055a5760405162461bcd60e51b81526004016104ea9061308f565b600080610566876112f8565b9195509250905061057a8888888888611674565b925082156105ce57866001600160a01b0316886001600160a01b03167f733330d4aad1a878654bf888817b79bc6478013399be29fa3b8845c81305249e856040516105c59190612fe4565b60405180910390a35b6001600160a01b0387166000908152609f60205260409020546105ef61171a565b146106bb576001600160a01b038716600090815260a06020526040902061061461171a565b85516020808801516001600160a01b038c166000908152609f909252604090912060018501919091559083555561064a88610891565b6001600160a01b0389166000818152609d602052604090819020805460029490940b62ffffff1662ffffff199094169390931790925590517f54e4482fe1d38392effe5d53f0e9e72f60221a75a10cea7abbb684bfb03519bf906106b19086908690613293565b60405180910390a2505b505094509492505050565b6106ce611670565b6001600160a01b03166106df611022565b6001600160a01b031614610723576040805162461bcd60e51b8152602060048201526006602482015265534f5f434e4f60d01b604482015290519081900360640190fd5b610735816001600160a01b031661171e565b6107515760405162461bcd60e51b81526004016104ea906130ae565b606880546001600160a01b0319166001600160a01b0383169081179091556040517fd0654f5900f9e7e4e605a19334306e6a2786bbf960ac0484a4c12feb6428fe2f90600090a250565b600054610100900460ff16806107b457506107b4611724565b806107c2575060005460ff16155b6107fd5760405162461bcd60e51b815260040180806020018281038252602e815260200180613337602e913960400191505060405180910390fd5b600054610100900460ff16158015610828576000805460ff1961ff0019909116610100171660011790555b61083183611735565b610843826001600160a01b031661171e565b61085f5760405162461bcd60e51b81526004016104ea9061306f565b609b80546001600160a01b0319166001600160a01b038416179055801561088c576000805461ff00191690555b505050565b60675460405163bbe4f6db60e01b815260009161091d916001600160a01b039091169063bbe4f6db906108c8908690600401612ed4565b60206040518083038186803b1580156108e057600080fd5b505afa1580156108f4573d6000803e3d6000fd5b505050506040513d601f19601f8201168201806040525081019061091891906129e5565b611829565b92915050565b61092b612848565b6068546001600160a01b031661093f611670565b6001600160a01b0316146109655760405162461bcd60e51b81526004016104ea9061302f565b606754602083015160405163033e16f360e21b81526000926001600160a01b031691630cf85bcc9161099a9190600401612ed4565b60806040518083038186803b1580156109b257600080fd5b505afa1580156109c6573d6000803e3d6000fd5b505050506040513d601f19601f820116820180604052508101906109ea9190612c05565b9050600080610a10856040015186606001518760800151866020015187604001516118a9565b915091506000609b60009054906101000a90046001600160a01b03166001600160a01b031663a3bf0df860405180610100016040528089602001516001600160a01b031681526020018960400151151581526020016001151581526020018581526020018960a001516001600160a01b03168152602001876020015162ffffff168152602001876040015162ffffff1681526020018960c001518152506040518263ffffffff1660e01b8152600401610ac99190613188565b606060405180830381600087803b158015610ae357600080fd5b505af1158015610af7573d6000803e3d6000fd5b505050506040513d601f19601f82011682018060405250810190610b1b9190612d03565b90506000610c176040518060e0016040528087600001516001600160a01b03168152602001606860009054906101000a90046001600160a01b03166001600160a01b031681526020018960400151151581526020018960600151151581526020018681526020018960a001516001600160a01b031681526020016040518060a001604052808b600001516001600160a01b031681526020018b602001516001600160a01b0316815260200189600001516001600160a01b03168152602001896040015162ffffff1681526020018660200151815250604051602001610c00919061320c565b6040516020818303038152906040528152506118f5565b9050600080886040015115610c5b57610c42610c3d846000015189604001516000611acd565b611b14565b6000039150610c548360200151611b14565b9050610c85565b8251610c6690611b14565b9150610c7f610c3d846020015189604001516000611acd565b60000390505b6020808a01516001600160a01b03166000908152609e9091526040902054610cce57610caf61171a565b6020808b01516001600160a01b03166000908152609e90915260409020555b6040805160a08101825292835260208084019290925290840151828201528301516060820152915160020b60808301525095945050505050565b600080610d14856112f8565b5050609b546040516347b52fb760e01b81529192506000916001600160a01b03909116906347b52fb790610d50908a908a908790600401612ee8565b60206040518083038186803b158015610d6857600080fd5b505afa158015610d7c573d6000803e3d6000fd5b505050506040513d601f19601f82011682018060405250810190610da09190612b7a565b9050610dae85858484611b5c565b925050505b949350505050565b6034546001600160a01b031690565b610dd2611670565b6001600160a01b0316610de3611022565b6001600160a01b031614610e27576040805162461bcd60e51b8152602060048201526006602482015265534f5f434e4f60d01b604482015290519081900360640190fd5b6033546040516000916001600160a01b031690600080516020613386833981519152908390a3603380546001600160a01b0319908116909155603480549091169055565b609b546001600160a01b031681565b606754815160405163033e16f360e21b815260009283926001600160a01b0390911691630cf85bcc91610eaf91600401612ed4565b60806040518083038186803b158015610ec757600080fd5b505afa158015610edb573d6000803e3d6000fd5b505050506040513d601f19601f82011682018060405250810190610eff9190612c05565b90506000816020015190506000826040015190506000610f2e86602001518760400151886060015186866118a9565b609b5460408051610100810182528a516001600160a01b0390811682526020808d01511515818401526000838501819052606084018790526080808f015184169085015262ffffff808c1660a08601528a1660c08501528451808601865281815291820181905260e08401919091529251631477e1bf60e31b815294965091945091169163a3bf0df891610fc491600401613188565b606060405180830381600087803b158015610fde57600080fd5b505af1158015610ff2573d6000803e3d6000fd5b505050506040513d601f19601f820116820180604052508101906110169190612d03565b51979650505050505050565b6033546001600160a01b031690565b60675460405163bbe4f6db60e01b81526000916110be916001600160a01b039091169063bbe4f6db90611068908790600401612ed4565b60206040518083038186803b15801561108057600080fd5b505afa158015611094573d6000803e3d6000fd5b505050506040513d601f19601f820116820180604052508101906110b891906129e5565b83611b8b565b9392505050565b609c546001600160a01b031681565b60675460405163bbe4f6db60e01b81526000916001600160a01b03169063bbe4f6db90611105908590600401612ed4565b60206040518083038186803b15801561111d57600080fd5b505afa158015611131573d6000803e3d6000fd5b505050506040513d601f19601f8201168201806040525081019061091d91906129e5565b6034546001600160a01b031661119a576040805162461bcd60e51b81526020600482015260056024820152640534f5f43360dc1b604482015290519081900360640190fd5b6111a2611670565b6034546001600160a01b039081169116146111ed576040805162461bcd60e51b8152602060048201526006602482015265534f5f434e4360d01b604482015290519081900360640190fd5b6034546033546040516001600160a01b03928316929091169060008051602061338683398151915290600090a360348054603380546001600160a01b03199081166001600160a01b03841617909155169055565b609b546001600160a01b0316611255611670565b6001600160a01b03161461127b5760405162461bcd60e51b81526004016104ea9061312f565b60685460405163d348799760e01b81526001600160a01b039091169063d3487997906112b1908790879087908790600401612fed565b600060405180830381600087803b1580156112cb57600080fd5b505af11580156112df573d6000803e3d6000fd5b5050505050505050565b6067546001600160a01b031681565b61130061282e565b6001600160a01b038216600090815260a060205260408120819081611323611ce4565b6001600160a01b0387166000908152609e602052604090205490915061134b575060006113ab565b6001600160a01b0386166000908152609e60205260409020546113769061137061171a565b90611cea565b8163ffffffff1611156113ab576001600160a01b0386166000908152609e60205260409020546113a89061137061171a565b90505b60006113c86113ba8884611031565b6001600160a01b0316611d47565b90506113d381611d61565b94506113de87611d7a565b6001600160a01b0388166000908152609f60205260409020549094508061140361171a565b1415801561141057508015155b156114aa57600061144d611429610c3d8461137061171a565b611447611438610c3d8a611dff565b61144187611b14565b90611e18565b90611e7d565b855490915061145c9082611f26565b885261149f6114946114806114728c6000611031565b6001600160a01b0316611b14565b61148e84600160601b611e7d565b90611f8b565b600187015490611f26565b6020890152506114c5565b60408051808201909152845481526001850154602082015296505b505050509193909250565b60006114da611670565b90506000816001600160a01b0316630dfe16816040518163ffffffff1660e01b815260040160206040518083038186803b15801561151757600080fd5b505afa15801561152b573d6000803e3d6000fd5b505050506040513d601f19601f8201168201806040525081019061154f91906129e5565b60675460405163bbe4f6db60e01b81529192506001600160a01b03169063bbe4f6db90611580908490600401612ed4565b60206040518083038186803b15801561159857600080fd5b505afa1580156115ac573d6000803e3d6000fd5b505050506040513d601f19601f820116820180604052508101906115d091906129e5565b6001600160a01b0316826001600160a01b0316146116005760405162461bcd60e51b81526004016104ea906130d0565b60685460405163fa461e3360e01b81526001600160a01b039091169063fa461e3390611636908990899089908990600401612fed565b600060405180830381600087803b15801561165057600080fd5b505af1158015611664573d6000803e3d6000fd5b50505050505050505050565b3390565b609b54604051633fe1339b60e11b815260009182916001600160a01b0390911690637fc26736906116ad908a908a908890600401612ee8565b602060405180830381600087803b1580156116c757600080fd5b505af11580156116db573d6000803e3d6000fd5b505050506040513d601f19601f820116820180604052508101906116ff9190612b7a565b905061170d85858584611b5c565b9150505b95945050505050565b4290565b3b151590565b600061172f3061171e565b15905090565b600054610100900460ff168061174e575061174e611724565b8061175c575060005460ff16155b6117975760405162461bcd60e51b815260040180806020018281038252602e815260200180613337602e913960400191505060405180910390fd5b600054610100900460ff161580156117c2576000805460ff1961ff0019909116610100171660011790555b6117ca612043565b6117dc826001600160a01b031661171e565b6117f85760405162461bcd60e51b81526004016104ea9061300d565b606780546001600160a01b0319166001600160a01b0384161790558015611825576000805461ff00191690555b5050565b6000816001600160a01b0316633850c7bd6040518163ffffffff1660e01b815260040160e06040518083038186803b15801561186457600080fd5b505afa158015611878573d6000803e3d6000fd5b505050506040513d601f19601f8201168201806040525081019061189c9190612dff565b5093979650505050505050565b6000806118b98787878787612133565b9150866118ce576118c985611b14565b6118d7565b6118d782611b14565b9050856118e757806000036118e9565b805b90509550959350505050565b6118fd61282e565b60008260800151116119215760405162461bcd60e51b81526004016104ea906130f0565b60008260600151611941576119398360800151611b14565b60000361194e565b61194e8360800151611b14565b905060008084600001516001600160a01b031663128acb0886602001518760400151868960a001516001600160a01b0316600014611990578960a001516119ba565b89604001516119b35773fffd8963efd1fc6a506488495d951d5263988d256119ba565b6401000276a45b8a60c001516040518663ffffffff1660e01b81526004016119df959493929190612f0d565b6040805180830381600087803b1580156119f857600080fd5b505af1158015611a0c573d6000803e3d6000fd5b505050506040513d601f19601f82011682018060405250810190611a309190612b92565b91509150600080611a408461217c565b611a498461217c565b915091506000876040015115158860600151151514611a685781611a6a565b825b90508760600151158015611a89575060a08801516001600160a01b0316155b15611ab15787608001518114611ab15760405162461bcd60e51b81526004016104ea9061310f565b5060408051808201909152918252602082015295945050505050565b600081611af857611af384611aea620f424062ffffff8716611cea565b620f424061219f565b610db3565b610db384620f4240611b0f8162ffffff8816611cea565b61224e565b6000600160ff1b8210611b585760405162461bcd60e51b81526004018080602001828103825260288152602001806133cd6028913960400191505060405180910390fd5b5090565b600080611b6e86856000015187612288565b9050611b816201518061148e8584611f26565b9695505050505050565b6000600a8263ffffffff161015611bac57611ba5836122a6565b905061091d565b6040805160028082526060820183526000926020830190803683370190505090508281600081518110611bdb57fe5b602002602001019063ffffffff16908163ffffffff1681525050600081600181518110611c0457fe5b63ffffffff9092166020928302919091019091015260405163883bdbfd60e01b81526000906001600160a01b0386169063883bdbfd90611c48908590600401612f8c565b60006040518083038186803b158015611c6057600080fd5b505afa158015611c74573d6000803e3d6000fd5b505050506040513d6000823e601f3d908101601f19168201604052611c9c9190810190612ab3565b5090506117118463ffffffff1682600081518110611cb657fe5b602002602001015183600181518110611ccb57fe5b60200260200101510360060b81611cde57fe5b05612326565b61038490565b600082821115611d41576040805162461bcd60e51b815260206004820152601e60248201527f536166654d6174683a207375627472616374696f6e206f766572666c6f770000604482015290519081900360640190fd5b50900390565b600061091d6001600160a01b03831680600160601b61219f565b600061091d82670de0b6b3a7640000600160601b61219f565b6000816001600160a01b03166312080647611d93611ce4565b6040518263ffffffff1660e01b8152600401611daf91906132a1565b60206040518083038186803b158015611dc757600080fd5b505afa158015611ddb573d6000803e3d6000fd5b505050506040513d601f19601f8201168201806040525081019061091d9190612b7a565b600061091d82600160601b670de0b6b3a764000061219f565b6000818303818312801590611e2d5750838113155b80611e425750600083128015611e4257508381135b6110be5760405162461bcd60e51b81526004018080602001828103825260248152602001806133f56024913960400191505060405180910390fd5b600082611e8c5750600061091d565b82600019148015611ea05750600160ff1b82145b15611edc5760405162461bcd60e51b81526004018080602001828103825260278152602001806133a66027913960400191505060405180910390fd5b82820282848281611ee957fe5b05146110be5760405162461bcd60e51b81526004018080602001828103825260278152602001806133a66027913960400191505060405180910390fd5b6000828201818312801590611f3b5750838112155b80611f505750600083128015611f5057508381125b6110be5760405162461bcd60e51b81526004018080602001828103825260218152602001806133166021913960400191505060405180910390fd5b600081611fdf576040805162461bcd60e51b815260206004820181905260248201527f5369676e6564536166654d6174683a206469766973696f6e206279207a65726f604482015290519081900360640190fd5b81600019148015611ff35750600160ff1b83145b1561202f5760405162461bcd60e51b81526004018080602001828103825260218152602001806133656021913960400191505060405180910390fd5b600082848161203a57fe5b05949350505050565b600054610100900460ff168061205c575061205c611724565b8061206a575060005460ff16155b6120a55760405162461bcd60e51b815260040180806020018281038252602e815260200180613337602e913960400191505060405180910390fd5b600054610100900460ff161580156120d0576000805460ff1961ff0019909116610100171660011790555b6120d861264d565b60006120e2611670565b603380546001600160a01b0319166001600160a01b03831690811790915560405191925090600090600080516020613386833981519152908290a3508015612130576000805461ff00191690555b50565b6000851561216457846121515761214c84846001611acd565b61215d565b61215d84836001611acd565b9050611711565b8461216f5783611b81565b611b8184838560016126f6565b60008082136121965761219182600003612737565b61091d565b61091d82612737565b60008080600019858709868602925082811090839003039050806121d557600084116121ca57600080fd5b5082900490506110be565b8084116121e157600080fd5b6000848688096000868103871696879004966002600389028118808a02820302808a02820302808a02820302808a02820302808a02820302808a02909103029181900381900460010186841190950394909402919094039290920491909117919091029150509392505050565b600061225b84848461219f565b90506000828061226757fe5b84860911156110be57600019811061227e57600080fd5b6001019392505050565b6000610db3600160601b61148e61229f8686611e18565b8790611e7d565b6000816001600160a01b0316633850c7bd6040518163ffffffff1660e01b815260040160e06040518083038186803b1580156122e157600080fd5b505afa1580156122f5573d6000803e3d6000fd5b505050506040513d601f19601f820116820180604052508101906123199190612dff565b5094979650505050505050565b60008060008360020b1261233d578260020b612345565b8260020b6000035b9050620d89e8811115612383576040805162461bcd60e51b81526020600482015260016024820152601560fa1b604482015290519081900360640190fd5b60006001821661239757600160801b6123a9565b6ffffcb933bd6fad37aa2d162d1a5940015b6001600160881b0316905060028216156123d3576ffff97272373d413259a46990580e213a0260801c5b60048216156123f2576ffff2e50f5f656932ef12357cf3c7fdcc0260801c5b6008821615612411576fffe5caca7e10e4e61c3624eaa0941cd00260801c5b6010821615612430576fffcb9843d60f6159c9db58835c9266440260801c5b602082161561244f576fff973b41fa98c081472e6896dfb254c00260801c5b604082161561246e576fff2ea16466c96a3843ec78b326b528610260801c5b608082161561248d576ffe5dee046a99a2a811c461f1969c30530260801c5b6101008216156124ad576ffcbe86c7900a88aedcffc83b479aa3a40260801c5b6102008216156124cd576ff987a7253ac413176f2b074cf7815e540260801c5b6104008216156124ed576ff3392b0822b70005940c7a398e4b70f30260801c5b61080082161561250d576fe7159475a2c29b7443b29c7fa6e889d90260801c5b61100082161561252d576fd097f3bdfd2022b8845ad8f792aa58250260801c5b61200082161561254d576fa9f746462d870fdf8a65dc1f90e061e50260801c5b61400082161561256d576f70d869a156d2a1b890bb3df62baf32f70260801c5b61800082161561258d576f31be135f97d08fd981231505542fcfa60260801c5b620100008216156125ae576f09aa508b5b7a84e1c677de54f3e99bc90260801c5b620200008216156125ce576e5d6af8dedb81196699c329225ee6040260801c5b620400008216156125ed576d2216e584f5fa1ea926041bedfe980260801c5b6208000082161561260a576b048a170391f7dc42444e8fa20260801c5b60008460020b131561262557806000198161262157fe5b0490505b600160201b81061561263857600161263b565b60005b60ff16602082901c0192505050919050565b600054610100900460ff16806126665750612666611724565b80612674575060005460ff16155b6126af5760405162461bcd60e51b815260040180806020018281038252602e815260200180613337602e913960400191505060405180910390fd5b600054610100900460ff161580156126da576000805460ff1961ff0019909116610100171660011790555b6126e261278e565b8015612130576000805461ff001916905550565b60008060008361270757858561270a565b84865b9092509050610dae87612725620f424062ffffff8616611cea565b611b0f620f424062ffffff8616611cea565b600080821215611b58576040805162461bcd60e51b815260206004820181905260248201527f53616665436173743a2076616c7565206d75737420626520706f736974697665604482015290519081900360640190fd5b600054610100900460ff16806127a757506127a7611724565b806127b5575060005460ff16155b6127f05760405162461bcd60e51b815260040180806020018281038252602e815260200180613337602e913960400191505060405180910390fd5b600054610100900460ff161580156126e2576000805460ff1961ff0019909116610100171660011790558015612130576000805461ff001916905550565b604051806040016040528060008152602001600081525090565b6040518060a0016040528060008152602001600081526020016000815260200160008152602001600060020b81525090565b8035610307816132f2565b600082601f830112612895578081fd5b815160206128aa6128a5836132d5565b6132b2565b82815281810190858301838502870184018810156128c6578586fd5b855b858110156128ed5781516128db816132f2565b845292840192908401906001016128c8565b5090979650505050505050565b803561030781613307565b60008083601f840112612916578182fd5b5081356001600160401b0381111561292c578182fd5b60208301915083602082850101111561294457600080fd5b9250929050565b8051600281900b811461030757600080fd5b60006040828403121561296e578081fd5b604080519081016001600160401b038111828210171561298a57fe5b604052823581526020928301359281019290925250919050565b805161ffff8116811461030757600080fd5b805162ffffff8116811461030757600080fd5b6000602082840312156129da578081fd5b81356110be816132f2565b6000602082840312156129f6578081fd5b81516110be816132f2565b60008060408385031215612a13578081fd5b8235612a1e816132f2565b91506020830135612a2e816132f2565b809150509250929050565b60008060008060808587031215612a4e578182fd5b8435612a59816132f2565b93506020850135612a69816132f2565b93969395505050506040820135916060013590565b60008060408385031215612a90578182fd5b8235612a9b816132f2565b9150602083013563ffffffff81168114612a2e578182fd5b60008060408385031215612ac5578182fd5b82516001600160401b0380821115612adb578384fd5b818501915085601f830112612aee578384fd5b81516020612afe6128a5836132d5565b82815281810190858301838502870184018b1015612b1a578889fd5b8896505b84871015612b4a5780518060060b8114612b3657898afd5b835260019690960195918301918301612b1e565b5091880151919650909350505080821115612b63578283fd5b50612b7085828601612885565b9150509250929050565b600060208284031215612b8b578081fd5b5051919050565b60008060408385031215612ba4578182fd5b505080516020909101519092909150565b60008060008060608587031215612bca578182fd5b843593506020850135925060408501356001600160401b03811115612bed578283fd5b612bf987828801612905565b95989497509550505050565b600060808284031215612c16578081fd5b604051608081016001600160401b0381118282101715612c3257fe5b6040528251612c40816132f2565b8152612c4e602084016129b6565b6020820152612c5f604084016129b6565b6040820152612c70606084016129b6565b60608201529392505050565b600060a08284031215612c8d578081fd5b60405160a081016001600160401b0381118282101715612ca957fe5b6040528235612cb7816132f2565b81526020830135612cc781613307565b60208201526040830135612cda81613307565b6040820152606083810135908201526080830135612cf7816132f2565b60808201529392505050565b600060608284031215612d14578081fd5b604051606081016001600160401b0381118282101715612d3057fe5b604052612d3c8361294b565b815260208301516020820152604083015160408201528091505092915050565b60006101008284031215612d6e578081fd5b60405160e081016001600160401b0381118282101715612d8a57fe5b604052612d968361287a565b8152612da46020840161287a565b6020820152612db5604084016128fa565b6040820152612dc6606084016128fa565b606082015260808301356080820152612de160a0840161287a565b60a0820152612df38460c0850161295d565b60c08201529392505050565b600080600080600080600060e0888a031215612e19578485fd5b8751612e24816132f2565b9650612e326020890161294b565b9550612e40604089016129a4565b9450612e4e606089016129a4565b9350612e5c608089016129a4565b925060a088015160ff81168114612e71578283fd5b60c0890151909250612e8281613307565b8091505092959891949750929550565b60008284528282602086013780602084860101526020601f19601f85011685010190509392505050565b80518252602090810151910152565b62ffffff169052565b6001600160a01b0391909116815260200190565b6001600160a01b0384811682528316602082015260808101610db36040830184612ebc565b600060018060a01b038088168352602087151581850152866040850152818616606085015260a06080850152845191508160a0850152825b82811015612f615785810182015185820160c001528101612f45565b82811115612f72578360c084870101525b5050601f01601f19169190910160c0019695505050505050565b6020808252825182820181905260009190848201906040850190845b81811015612fca57835163ffffffff1683529284019291840191600101612fa8565b50909695505050505050565b60029190910b815260200190565b90815260200190565b600085825284602083015260606040830152611b81606083018486612e92565b6020808252600890820152674348445f4d524e4360c01b604082015260600190565b6020808252600790820152660869088be9e86960cb1b604082015260600190565b6020808252600590820152640455f4142360dc1b604082015260600190565b602080825260069082015265455f4f424e4360d01b604082015260600190565b60208082526005908201526422afa7a0a160d91b604082015260600190565b6020808252600890820152674348445f43484e4360c01b604082015260600190565b60208082526006908201526522ac2fa321ab60d11b604082015260600190565b60208082526005908201526455425f5a4960d81b604082015260600190565b60208082526006908201526555425f554f4160d01b604082015260600190565b60208082526005908201526422afa727a160d91b604082015260600190565b6060810161315c8285612ebc565b8260408301529392505050565b608081016131778286612ebc565b604082019390935260600152919050565b60006101208201905060018060a01b03808451168352602084015115156020840152604084015115156040840152606084015160608401528060808501511660808401525060a08301516131df60a0840182612ecb565b5060c08301516131f260c0840182612ecb565b5060e083015161320560e0840182612ebc565b5092915050565b81516001600160a01b0390811682526020808401518216908301526040808401519091169082015260608083015162ffffff16908201526080918201519181019190915260a00190565b600060a08201905082518252602083015160208301526040830151604083015260608301516060830152608083015160020b608083015292915050565b918252602082015260400190565b63ffffffff91909116815260200190565b6040518181016001600160401b03811182821017156132cd57fe5b604052919050565b60006001600160401b038211156132e857fe5b5060209081020190565b6001600160a01b038116811461213057600080fd5b801515811461213057600080fdfe5369676e6564536166654d6174683a206164646974696f6e206f766572666c6f77496e697469616c697a61626c653a20636f6e747261637420697320616c726561647920696e697469616c697a65645369676e6564536166654d6174683a206469766973696f6e206f766572666c6f778be0079c531659141344cd1fd0a4f28419497f9722a3daafe3b4186f6b6457e05369676e6564536166654d6174683a206d756c7469706c69636174696f6e206f766572666c6f7753616665436173743a2076616c756520646f65736e27742066697420696e20616e20696e743235365369676e6564536166654d6174683a207375627472616374696f6e206f766572666c6f77a2646970667358221220087b35aa0454908d495eec474620fc3c6c155084195627cf15201c720e7d7e8164736f6c63430007060033",
  "linkReferences": {},
  "deployedLinkReferences": {}
}