{
  "_format": "hh-sol-artifact-1",
  "contractName": "AccountBalance",
  "sourceName": "contracts/AccountBalance.sol",
  "abi": [
    {
      "anonymous": false,
      "inputs": [
        {
          "indexed": true,
          "internalType": "address",
          "name": "clearingHouse",
          "type": "address"
        }
      ],
      "name": "ClearingHouseChanged",
      "type": "event"
    },
    {
      "anonymous": false,
      "inputs": [
        {
          "indexed": true,
          "internalType": "address",
          "name": "previousOwner",
          "type": "address"
        },
        {
          "indexed": true,
          "internalType": "address",
          "name": "newOwner",
          "type": "address"
        }
      ],
      "name": "OwnershipTransferred",
      "type": "event"
    },
    {
      "inputs": [
        {
          "internalType": "address",
          "name": "trader",
          "type": "address"
        },
        {
          "internalType": "address",
          "name": "baseToken",
          "type": "address"
        },
        {
          "internalType": "int256",
          "name": "base",
          "type": "int256"
        },
        {
          "internalType": "int256",
          "name": "quote",
          "type": "int256"
        },
        {
          "internalType": "int256",
          "name": "owedRealizedPnl",
          "type": "int256"
        }
      ],
      "name": "addBalance",
      "outputs": [],
      "stateMutability": "nonpayable",
      "type": "function"
    },
    {
      "inputs": [
        {
          "internalType": "address",
          "name": "trader",
          "type": "address"
        },
        {
          "internalType": "int256",
          "name": "delta",
          "type": "int256"
        }
      ],
      "name": "addOwedRealizedPnl",
      "outputs": [],
      "stateMutability": "nonpayable",
      "type": "function"
    },
    {
      "inputs": [],
      "name": "candidate",
      "outputs": [
        {
          "internalType": "address",
          "name": "",
          "type": "address"
        }
      ],
      "stateMutability": "view",
      "type": "function"
    },
    {
      "inputs": [],
      "name": "clearingHouse",
      "outputs": [
        {
          "internalType": "address",
          "name": "",
          "type": "address"
        }
      ],
      "stateMutability": "view",
      "type": "function"
    },
    {
      "inputs": [],
      "name": "clearingHouseConfig",
      "outputs": [
        {
          "internalType": "address",
          "name": "",
          "type": "address"
        }
      ],
      "stateMutability": "view",
      "type": "function"
    },
    {
      "inputs": [
        {
          "internalType": "address",
          "name": "trader",
          "type": "address"
        },
        {
          "internalType": "address",
          "name": "baseToken",
          "type": "address"
        }
      ],
      "name": "deregisterBaseToken",
      "outputs": [],
      "stateMutability": "nonpayable",
      "type": "function"
    },
    {
      "inputs": [],
      "name": "exchange",
      "outputs": [
        {
          "internalType": "address",
          "name": "",
          "type": "address"
        }
      ],
      "stateMutability": "view",
      "type": "function"
    },
    {
      "inputs": [
        {
          "internalType": "address",
          "name": "trader",
          "type": "address"
        },
        {
          "internalType": "address",
          "name": "baseToken",
          "type": "address"
        }
      ],
      "name": "getBase",
      "outputs": [
        {
          "internalType": "int256",
          "name": "",
          "type": "int256"
        }
      ],
      "stateMutability": "view",
      "type": "function"
    },
    {
      "inputs": [
        {
          "internalType": "address",
          "name": "trader",
          "type": "address"
        }
      ],
      "name": "getBaseTokens",
      "outputs": [
        {
          "internalType": "address[]",
          "name": "",
          "type": "address[]"
        }
      ],
      "stateMutability": "view",
      "type": "function"
    },
    {
      "inputs": [
        {
          "internalType": "address",
          "name": "trader",
          "type": "address"
        }
      ],
      "name": "getNetQuoteBalance",
      "outputs": [
        {
          "internalType": "int256",
          "name": "",
          "type": "int256"
        }
      ],
      "stateMutability": "view",
      "type": "function"
    },
    {
      "inputs": [
        {
          "internalType": "address",
          "name": "trader",
          "type": "address"
        }
      ],
      "name": "getOwedRealizedPnl",
      "outputs": [
        {
          "internalType": "int256",
          "name": "",
          "type": "int256"
        }
      ],
      "stateMutability": "view",
      "type": "function"
    },
    {
      "inputs": [
        {
          "internalType": "address",
          "name": "trader",
          "type": "address"
        }
      ],
      "name": "getOwedRealizedPnlWithPendingFundingPayment",
      "outputs": [
        {
          "internalType": "int256",
          "name": "owedRealizedPnl",
          "type": "int256"
        }
      ],
      "stateMutability": "view",
      "type": "function"
    },
    {
      "inputs": [
        {
          "internalType": "address",
          "name": "trader",
          "type": "address"
        },
        {
          "internalType": "address",
          "name": "baseToken",
          "type": "address"
        }
      ],
      "name": "getPendingFundingPayment",
      "outputs": [
        {
          "internalType": "int256",
          "name": "",
          "type": "int256"
        }
      ],
      "stateMutability": "view",
      "type": "function"
    },
    {
      "inputs": [
        {
          "internalType": "address",
          "name": "trader",
          "type": "address"
        },
        {
          "internalType": "address",
          "name": "baseToken",
          "type": "address"
        }
      ],
      "name": "getPositionSize",
      "outputs": [
        {
          "internalType": "int256",
          "name": "",
          "type": "int256"
        }
      ],
      "stateMutability": "view",
      "type": "function"
    },
    {
      "inputs": [
        {
          "internalType": "address",
          "name": "trader",
          "type": "address"
        },
        {
          "internalType": "address",
          "name": "baseToken",
          "type": "address"
        }
      ],
      "name": "getPositionValue",
      "outputs": [
        {
          "internalType": "int256",
          "name": "",
          "type": "int256"
        }
      ],
      "stateMutability": "view",
      "type": "function"
    },
    {
      "inputs": [
        {
          "internalType": "address",
          "name": "trader",
          "type": "address"
        },
        {
          "internalType": "address",
          "name": "baseToken",
          "type": "address"
        }
      ],
      "name": "getQuote",
      "outputs": [
        {
          "internalType": "int256",
          "name": "",
          "type": "int256"
        }
      ],
      "stateMutability": "view",
      "type": "function"
    },
    {
      "inputs": [
        {
          "internalType": "address",
          "name": "trader",
          "type": "address"
        }
      ],
      "name": "getTotalAbsPositionValue",
      "outputs": [
        {
          "internalType": "uint256",
          "name": "",
          "type": "uint256"
        }
      ],
      "stateMutability": "view",
      "type": "function"
    },
    {
      "inputs": [
        {
          "internalType": "address",
          "name": "trader",
          "type": "address"
        }
      ],
      "name": "getTotalDebtValue",
      "outputs": [
        {
          "internalType": "uint256",
          "name": "",
          "type": "uint256"
        }
      ],
      "stateMutability": "view",
      "type": "function"
    },
    {
      "inputs": [
        {
          "internalType": "address",
          "name": "trader",
          "type": "address"
        }
      ],
      "name": "getTotalUnrealizedPnl",
      "outputs": [
        {
          "internalType": "int256",
          "name": "",
          "type": "int256"
        }
      ],
      "stateMutability": "view",
      "type": "function"
    },
    {
      "inputs": [
        {
          "internalType": "address",
          "name": "trader",
          "type": "address"
        }
      ],
      "name": "hasOrder",
      "outputs": [
        {
          "internalType": "bool",
          "name": "",
          "type": "bool"
        }
      ],
      "stateMutability": "view",
      "type": "function"
    },
    {
      "inputs": [
        {
          "internalType": "address",
          "name": "clearingHouseConfigArg",
          "type": "address"
        },
        {
          "internalType": "address",
          "name": "marketRegistryArg",
          "type": "address"
        },
        {
          "internalType": "address",
          "name": "exchangeArg",
          "type": "address"
        }
      ],
      "name": "initialize",
      "outputs": [],
      "stateMutability": "nonpayable",
      "type": "function"
    },
    {
      "inputs": [],
      "name": "marketRegistry",
      "outputs": [
        {
          "internalType": "address",
          "name": "",
          "type": "address"
        }
      ],
      "stateMutability": "view",
      "type": "function"
    },
    {
      "inputs": [],
      "name": "orderBook",
      "outputs": [
        {
          "internalType": "address",
          "name": "",
          "type": "address"
        }
      ],
      "stateMutability": "view",
      "type": "function"
    },
    {
      "inputs": [],
      "name": "owner",
      "outputs": [
        {
          "internalType": "address",
          "name": "",
          "type": "address"
        }
      ],
      "stateMutability": "view",
      "type": "function"
    },
    {
      "inputs": [
        {
          "internalType": "address",
          "name": "trader",
          "type": "address"
        },
        {
          "internalType": "address",
          "name": "baseToken",
          "type": "address"
        }
      ],
      "name": "registerBaseToken",
      "outputs": [],
      "stateMutability": "nonpayable",
      "type": "function"
    },
    {
      "inputs": [],
      "name": "renounceOwnership",
      "outputs": [],
      "stateMutability": "nonpayable",
      "type": "function"
    },
    {
      "inputs": [
        {
          "internalType": "address",
          "name": "clearingHouseArg",
          "type": "address"
        }
      ],
      "name": "setClearingHouse",
      "outputs": [],
      "stateMutability": "nonpayable",
      "type": "function"
    },
    {
      "inputs": [
        {
          "internalType": "address",
          "name": "newOwner",
          "type": "address"
        }
      ],
      "name": "setOwner",
      "outputs": [],
      "stateMutability": "nonpayable",
      "type": "function"
    },
    {
      "inputs": [
        {
          "internalType": "address",
          "name": "vaultArg",
          "type": "address"
        }
      ],
      "name": "setVault",
      "outputs": [],
      "stateMutability": "nonpayable",
      "type": "function"
    },
    {
      "inputs": [
        {
          "internalType": "address",
          "name": "trader",
          "type": "address"
        }
      ],
      "name": "settle",
      "outputs": [
        {
          "internalType": "int256",
          "name": "pnl",
          "type": "int256"
        }
      ],
      "stateMutability": "nonpayable",
      "type": "function"
    },
    {
      "inputs": [
        {
          "internalType": "address",
          "name": "trader",
          "type": "address"
        },
        {
          "internalType": "address",
          "name": "baseToken",
          "type": "address"
        }
      ],
      "name": "settleFundingAndUpdateFundingGrowth",
      "outputs": [
        {
          "components": [
            {
              "internalType": "int256",
              "name": "twPremiumX96",
              "type": "int256"
            },
            {
              "internalType": "int256",
              "name": "twPremiumDivBySqrtPriceX96",
              "type": "int256"
            }
          ],
          "internalType": "struct Funding.Growth",
          "name": "fundingGrowthGlobal",
          "type": "tuple"
        }
      ],
      "stateMutability": "nonpayable",
      "type": "function"
    },
    {
      "inputs": [
        {
          "internalType": "address",
          "name": "trader",
          "type": "address"
        },
        {
          "internalType": "address",
          "name": "baseToken",
          "type": "address"
        },
        {
          "internalType": "int256",
          "name": "amount",
          "type": "int256"
        }
      ],
      "name": "settleQuoteToPnl",
      "outputs": [],
      "stateMutability": "nonpayable",
      "type": "function"
    },
    {
      "inputs": [],
      "name": "updateOwner",
      "outputs": [],
      "stateMutability": "nonpayable",
      "type": "function"
    },
    {
      "inputs": [],
      "name": "vault",
      "outputs": [
        {
          "internalType": "address",
          "name": "",
          "type": "address"
        }
      ],
      "stateMutability": "view",
      "type": "function"
    }
  ],
  "bytecode": "0x608060405234801561001057600080fd5b50612b75806100206000396000f3fe608060405234801561001057600080fd5b50600436106101965760003560e01c80630af968001461019b57806313af4035146101b95780631b76e231146101ce578063293a5077146101ee5780632bea79361461020e5780633772470214610221578063449323d8146102345780636817031b146102475780636a256b291461025a5780636c8381f81461026d5780636ccdc82e14610275578063715018a614610288578063776af5ba1461029057806377b57b07146102985780637a5b45a0146102ab5780638227bc3e146102be5780638da25bbe146102d15780638da5cb5b146102e4578063af74e736146102ec578063b3bd6e121461030c578063bc5920ba1461031f578063beb56a7514610327578063c0c53b8b1461033a578063c2075b211461034d578063ca28b89114610355578063cb379aa214610368578063cb3c7b8e1461037b578063d2f7265a1461039b578063ecb96fe6146103a3578063ee817e8b146103ab578063f0c79797146103be578063fa8e30af146103d1578063fbfa77cf146103e4578063fc737214146103ec575b600080fd5b6101a36103ff565b6040516101b09190612798565b60405180910390f35b6101cc6101c7366004612548565b61040e565b005b6101e16101dc366004612580565b610569565b6040516101b091906129de565b6102016101fc366004612548565b6105c7565b6040516101b091906128ad565b61020161021c366004612548565b6106dd565b6101cc61022f366004612692565b610778565b6101cc610242366004612548565b6107f5565b6101cc610255366004612548565b6108ca565b610201610268366004612548565b610977565b6101a3610a47565b610201610283366004612548565b610a56565b6101cc610b24565b6101a3610bc5565b6102016102a6366004612580565b610bd4565b6102016102b9366004612580565b610c9d565b6102016102cc366004612548565b610ccb565b6102016102df366004612580565b610e0b565b6101a3610eca565b6102ff6102fa366004612548565b610ed9565b6040516101b09190612855565b61020161031a366004612580565b610f4f565b6101cc610f7a565b6101cc610335366004612642565b611066565b6101cc6103483660046125b8565b61112e565b6101a3611317565b610201610363366004612548565b611326565b610201610376366004612580565b611353565b61038e610389366004612548565b61135f565b6040516101b091906128a2565b6101a36113f3565b6101a3611402565b6102016103b9366004612548565b611411565b6101cc6103cc366004612602565b61142c565b6101cc6103df366004612580565b6114e4565b6101a3611800565b6101cc6103fa366004612580565b61180f565b6068546001600160a01b031681565b610416611a5b565b6001600160a01b0316610427610eca565b6001600160a01b03161461046b576040805162461bcd60e51b8152602060048201526006602482015265534f5f434e4f60d01b604482015290519081900360640190fd5b6001600160a01b0381166104af576040805162461bcd60e51b81526020600482015260066024820152650534f5f4e57360d41b604482015290519081900360640190fd5b6033546001600160a01b03828116911614156104fb576040805162461bcd60e51b8152602060048201526006602482015265534f5f53414f60d01b604482015290519081900360640190fd5b6034546001600160a01b0382811691161415610547576040805162461bcd60e51b8152602060048201526006602482015265534f5f53414360d01b604482015290519081900360640190fd5b603480546001600160a01b0319166001600160a01b0392909216919091179055565b61057161252e565b6068546001600160a01b0316610585611a5b565b6001600160a01b0316146105b45760405162461bcd60e51b81526004016105ab906128fa565b60405180910390fd5b6105be8383611a5f565b90505b92915050565b6001600160a01b038116600090815260a0602052604081205481908190815b818110156106a9576001600160a01b038616600090815260a06020526040812080548390811061061257fe5b60009182526020822001546001600160a01b031691506106328883610f4f565b9050600080821361064e5761064982600003611b8f565b610651565b60005b9050600061067061066b61066486611bea565b8490611c6f565b611cc8565b9050600061067e8b86610c9d565b905061068a8883611cdc565b97506106968982611d34565b985050600190940193506105e692505050565b5060008084136106c4576106bf84600003611b8f565b6106c7565b60005b90506106d38184611cdc565b9695505050505050565b60008060005b6001600160a01b038416600090815260a0602052604090205481101561075d576001600160a01b038416600090815260a06020526040812080548390811061072757fe5b6000918252602090912001546001600160a01b0316905061075261074b8683610bd4565b8490611d34565b9250506001016106e3565b506107718161076b85610ccb565b90611d34565b9392505050565b6068546001600160a01b031661078c611a5b565b6001600160a01b0316146107b25760405162461bcd60e51b81526004016105ab906128fa565b6001600160a01b0382166000908152609f60205260409020546107d59082611d34565b6001600160a01b039092166000908152609f602052604090209190915550565b6107fd611a5b565b6001600160a01b031661080e610eca565b6001600160a01b031614610852576040805162461bcd60e51b8152602060048201526006602482015265534f5f434e4f60d01b604482015290519081900360640190fd5b610864816001600160a01b0316611d99565b6108805760405162461bcd60e51b81526004016105ab9061295c565b606880546001600160a01b0319166001600160a01b0383169081179091556040517fd0654f5900f9e7e4e605a19334306e6a2786bbf960ac0484a4c12feb6428fe2f90600090a250565b6108d2611a5b565b6001600160a01b03166108e3610eca565b6001600160a01b031614610927576040805162461bcd60e51b8152602060048201526006602482015265534f5f434e4f60d01b604482015290519081900360640190fd5b610939816001600160a01b0316611d99565b6109555760405162461bcd60e51b81526004016105ab906129be565b609e80546001600160a01b0319166001600160a01b0392909216919091179055565b609e546000906001600160a01b031661098e611a5b565b6001600160a01b0316146109b45760405162461bcd60e51b81526004016105ab9061299f565b60005b6001600160a01b038316600090815260a06020526040902054811015610a26576001600160a01b038316600090815260a0602052604081208054839081106109fb57fe5b6000918252602090912001546001600160a01b03169050610a1c8482611a5f565b50506001016109b7565b50506001600160a01b03166000908152609f60205260408120805491905590565b6034546001600160a01b031690565b6001600160a01b038116600090815260a06020908152604080832080548251818502810185019093528083528493830182828015610abd57602002820191906000526020600020905b81546001600160a01b03168152600190910190602001808311610a9f575b505050505090506000808251905060005b81811015610b1a576000848281518110610ae457fe5b602002602001015190506000610b02610afd8984610bd4565b611d9f565b9050610b0e8582611cdc565b94505050600101610ace565b5090949350505050565b610b2c611a5b565b6001600160a01b0316610b3d610eca565b6001600160a01b031614610b81576040805162461bcd60e51b8152602060048201526006602482015265534f5f434e4f60d01b604482015290519081900360640190fd5b6033546040516000916001600160a01b031690600080516020612aad833981519152908390a3603380546001600160a01b0319908116909155603480549091169055565b609d546001600160a01b031681565b600080610be18484610e0b565b905080610bf25760009150506105c1565b6000836001600160a01b03166312080647610c0b611dc2565b6040518263ffffffff1660e01b8152600401610c2791906129f5565b60206040518083038186803b158015610c3f57600080fd5b505afa158015610c53573d6000803e3d6000fd5b505050506040513d601f19601f82011682018060405250810190610c7791906126dd565b9050610c94610c8f610c8883611e44565b8490611e88565b611f31565b95945050505050565b6001600160a01b03918216600090815260a16020908152604080832093909416825291909152206001015490565b6001600160a01b038116600090815260a0602052604081205481805b82811015610d42576001600160a01b038516600090815260a060205260408120805483908110610d1357fe5b6000918252602090912001546001600160a01b03169050610d3761074b8783610c9d565b925050600101610ce7565b50609d546001600160a01b03858116600090815260a060205260408082209051632196f33360e21b81529193929092169163865bcccc91610d879189916004016127f9565b60206040518083038186803b158015610d9f57600080fd5b505afa158015610db3573d6000803e3d6000fd5b505050506040513d601f19601f82011682018060405250810190610dd791906126dd565b90506000610de761074b83611e44565b9050600a610df482611d9f565b10610dff57806106d3565b50600095945050505050565b600080610ea7610e1b8585610f4f565b609d5460405163bf0b1abb60e01b815261076b916001600160a01b03169063bf0b1abb90610e52908a908a906001906004016127ac565b60206040518083038186803b158015610e6a57600080fd5b505afa158015610e7e573d6000803e3d6000fd5b505050506040513d601f19601f82011682018060405250810190610ea291906126dd565b611e44565b9050600a610eb482611d9f565b10610ebf5780610ec2565b60005b949350505050565b6033546001600160a01b031690565b6001600160a01b038116600090815260a06020908152604091829020805483518184028101840190945280845260609392830182828015610f4357602002820191906000526020600020905b81546001600160a01b03168152600190910190602001808311610f25575b50505050509050919050565b6001600160a01b03918216600090815260a16020908152604080832093909416825291909152205490565b6034546001600160a01b0316610fbf576040805162461bcd60e51b81526020600482015260056024820152640534f5f43360dc1b604482015290519081900360640190fd5b610fc7611a5b565b6034546001600160a01b03908116911614611012576040805162461bcd60e51b8152602060048201526006602482015265534f5f434e4360d01b604482015290519081900360640190fd5b6034546033546040516001600160a01b039283169290911690600080516020612aad83398151915290600090a360348054603380546001600160a01b03199081166001600160a01b03841617909155169055565b6068546001600160a01b031661107a611a5b565b6001600160a01b0316146110a05760405162461bcd60e51b81526004016105ab906128fa565b6001600160a01b03808616600090815260a16020908152604080832093881683529290522080546110d19085611d34565b815560018101546110e29084611d34565b60018201556001600160a01b0386166000908152609f602052604090205461110a9083611d34565b6001600160a01b039096166000908152609f60205260409020959095555050505050565b600054610100900460ff16806111475750611147611f45565b80611155575060005460ff16155b6111905760405162461bcd60e51b815260040180806020018281038252602e815260200180612a3d602e913960400191505060405180910390fd5b600054610100900460ff161580156111bb576000805460ff1961ff0019909116610100171660011790555b6111cd846001600160a01b0316611d99565b6111e95760405162461bcd60e51b81526004016105ab906128b6565b6111fb826001600160a01b0316611d99565b6112175760405162461bcd60e51b81526004016105ab9061291b565b6000826001600160a01b031663776af5ba6040518163ffffffff1660e01b815260040160206040518083038186803b15801561125257600080fd5b505afa158015611266573d6000803e3d6000fd5b505050506040513d601f19601f8201168201806040525081019061128a9190612564565b905061129e816001600160a01b0316611d99565b6112ba5760405162461bcd60e51b81526004016105ab9061297e565b6112c384611f56565b609b80546001600160a01b038088166001600160a01b031992831617909255609c8054868416908316179055609d80549390921692169190911790558015611311576000805461ff00191690555b50505050565b609b546001600160a01b031681565b60006105c161133483612049565b6001600160a01b0384166000908152609f6020526040902054906120c6565b60006105be838361212b565b609d546001600160a01b03828116600090815260a060205260408082209051634dffaee560e01b815291939290921691634dffaee5916113a39186916004016127f9565b60206040518083038186803b1580156113bb57600080fd5b505afa1580156113cf573d6000803e3d6000fd5b505050506040513d601f19601f820116820180604052508101906105c191906126bd565b609c546001600160a01b031681565b6067546001600160a01b031681565b6001600160a01b03166000908152609f602052604090205490565b6068546001600160a01b0316611440611a5b565b6001600160a01b0316146114665760405162461bcd60e51b81526004016105ab906128fa565b6001600160a01b03808416600090815260a160209081526040808320938616835292905220600181015461149a90836120c6565b60018201556001600160a01b0384166000908152609f60205260409020546114c29083611d34565b6001600160a01b039094166000908152609f6020526040902093909355505050565b6068546001600160a01b03166114f8611a5b565b6001600160a01b03161461151e5760405162461bcd60e51b81526004016105ab906128fa565b600a61152d610afd8484610f4f565b1015806115475750600a611544610afd8484610c9d565b10155b15611551576117fc565b609d5460405163bf0b1abb60e01b81526000916001600160a01b03169063bf0b1abb9061158790869086906001906004016127ac565b60206040518083038186803b15801561159f57600080fd5b505afa1580156115b3573d6000803e3d6000fd5b505050506040513d601f19601f820116820180604052508101906115d791906126dd565b609d5460405163bf0b1abb60e01b81529192506000916001600160a01b039091169063bf0b1abb90611611908790879086906004016127ac565b60206040518083038186803b15801561162957600080fd5b505afa15801561163d573d6000803e3d6000fd5b505050506040513d601f19601f8201168201806040525081019061166191906126dd565b905060008211806116725750600081115b1561167e5750506117fc565b6001600160a01b03808516600081815260a16020908152604080832094881683529381528382208281556001810183905560020182905591815260a090915290812054905b818110156117f7576001600160a01b03868116600090815260a060205260409020805491871691839081106116f457fe5b6000918252602090912001546001600160a01b031614156117ef576001820381146117a7576001600160a01b038616600090815260a0602052604090208054600019840190811061174157fe5b60009182526020808320909101546001600160a01b03898116845260a0909252604090922080549190921691908390811061177857fe5b9060005260206000200160006101000a8154816001600160a01b0302191690836001600160a01b031602179055505b6001600160a01b038616600090815260a0602052604090208054806117c857fe5b600082815260209020810160001990810180546001600160a01b03191690550190556117f7565b6001016116c3565b505050505b5050565b609e546001600160a01b031681565b6068546001600160a01b0316611823611a5b565b6001600160a01b0316146118495760405162461bcd60e51b81526004016105ab906128fa565b6001600160a01b038216600090815260a060209081526040808320805482518185028101850190935280835291929091908301828280156118b357602002820191906000526020600020905b81546001600160a01b03168152600190910190602001808311611895575b5050505050905080516000141561190857506001600160a01b03828116600090815260a0602090815260408220805460018101825590835291200180546001600160a01b0319169183169190911790556117fc565b6119128383610f4f565b611a56576000805b825181101561196157836001600160a01b031683828151811061193957fe5b60200260200101516001600160a01b031614156119595760019150611961565b60010161191a565b508061131157609b546040805163f652b52760e01b815290516000926001600160a01b03169163f652b527916004808301926020929190829003018186803b1580156119ac57600080fd5b505afa1580156119c0573d6000803e3d6000fd5b505050506040513d601f19601f820116820180604052508101906119e49190612777565b905060ff811615806119f957508060ff168351105b611a155760405162461bcd60e51b81526004016105ab9061293c565b50506001600160a01b03838116600090815260a0602090815260408220805460018101825590835291200180546001600160a01b0319169184169190911790555b505050565b3390565b611a6761252e565b609c546001600160a01b03848116600090815260a160209081526040808320878516845290915280822080546002909101549151633a5c16cf60e01b8152929485941692633a5c16cf92611ac2928a928a92906004016127d0565b606060405180830381600087803b158015611adc57600080fd5b505af1158015611af0573d6000803e3d6000fd5b505050506040513d601f19601f82011682018060405250810190611b1491906126f5565b81516001600160a01b03808916600090815260a160209081526040808320938b168352929052206002015590925090508015611b87576001600160a01b0385166000908152609f6020526040902054611b6d90826120c6565b6001600160a01b0386166000908152609f60205260409020555b509392505050565b600080821215611be6576040805162461bcd60e51b815260206004820181905260248201527f53616665436173743a2076616c7565206d75737420626520706f736974697665604482015290519081900360640190fd5b5090565b6000816001600160a01b03166312080647611c03611dc2565b6040518263ffffffff1660e01b8152600401611c1f91906129f5565b60206040518083038186803b158015611c3757600080fd5b505afa158015611c4b573d6000803e3d6000fd5b505050506040513d601f19601f820116820180604052508101906105c191906126dd565b600082611c7e575060006105c1565b82820282848281611c8b57fe5b04146105be5760405162461bcd60e51b8152600401808060200182810382526021815260200180612a8c6021913960400191505060405180910390fd5b60006105c182670de0b6b3a76400006121d9565b6000828201838110156105be576040805162461bcd60e51b815260206004820152601b60248201527a536166654d6174683a206164646974696f6e206f766572666c6f7760281b604482015290519081900360640190fd5b6000828201818312801590611d495750838112155b80611d5e5750600083128015611d5e57508381125b6105be5760405162461bcd60e51b8152600401808060200182810382526021815260200180612a1c6021913960400191505060405180910390fd5b3b151590565b6000808213611db957611db482600003611b8f565b6105c1565b6105c182611b8f565b609b54604080516303c1d5df60e41b815290516000926001600160a01b031691633c1d5df0916004808301926020929190829003018186803b158015611e0757600080fd5b505afa158015611e1b573d6000803e3d6000fd5b505050506040513d601f19601f82011682018060405250810190611e3f9190612753565b905090565b6000600160ff1b8210611be65760405162461bcd60e51b8152600401808060200182810382526028815260200180612af46028913960400191505060405180910390fd5b600082611e97575060006105c1565b82600019148015611eab5750600160ff1b82145b15611ee75760405162461bcd60e51b8152600401808060200182810382526027815260200180612acd6027913960400191505060405180910390fd5b82820282848281611ef457fe5b05146105be5760405162461bcd60e51b8152600401808060200182810382526027815260200180612acd6027913960400191505060405180910390fd5b60006105c182670de0b6b3a764000061223d565b6000611f5030611d99565b15905090565b600054610100900460ff1680611f6f5750611f6f611f45565b80611f7d575060005460ff16155b611fb85760405162461bcd60e51b815260040180806020018281038252602e815260200180612a3d602e913960400191505060405180910390fd5b600054610100900460ff16158015611fe3576000805460ff1961ff0019909116610100171660011790555b611feb6122f5565b611ffd826001600160a01b0316611d99565b6120195760405162461bcd60e51b81526004016105ab906128d8565b606780546001600160a01b0319166001600160a01b03841617905580156117fc576000805461ff00191690555050565b6000805b6001600160a01b038316600090815260a060205260409020548110156120c0576001600160a01b038316600090815260a06020526040812080548390811061209157fe5b6000918252602090912001546001600160a01b031690506120b561074b858361212b565b92505060010161204d565b50919050565b60008183038183128015906120db5750838113155b806120f057506000831280156120f057508381135b6105be5760405162461bcd60e51b8152600401808060200182810382526024815260200180612b1c6024913960400191505060405180910390fd5b609c546001600160a01b03838116600090815260a1602090815260408083208685168452909152808220805460029091015491516334c664d160e11b81529294939093169263698cc9a29261218992889288929091906004016127d0565b60206040518083038186803b1580156121a157600080fd5b505afa1580156121b5573d6000803e3d6000fd5b505050506040513d601f19601f820116820180604052508101906105be91906126dd565b600080821161222c576040805162461bcd60e51b815260206004820152601a602482015279536166654d6174683a206469766973696f6e206279207a65726f60301b604482015290519081900360640190fd5b81838161223557fe5b049392505050565b600081612291576040805162461bcd60e51b815260206004820181905260248201527f5369676e6564536166654d6174683a206469766973696f6e206279207a65726f604482015290519081900360640190fd5b816000191480156122a55750600160ff1b83145b156122e15760405162461bcd60e51b8152600401808060200182810382526021815260200180612a6b6021913960400191505060405180910390fd5b60008284816122ec57fe5b05949350505050565b600054610100900460ff168061230e575061230e611f45565b8061231c575060005460ff16155b6123575760405162461bcd60e51b815260040180806020018281038252602e815260200180612a3d602e913960400191505060405180910390fd5b600054610100900460ff16158015612382576000805460ff1961ff0019909116610100171660011790555b61238a6123e5565b6000612394611a5b565b603380546001600160a01b0319166001600160a01b03831690811790915560405191925090600090600080516020612aad833981519152908290a35080156123e2576000805461ff00191690555b50565b600054610100900460ff16806123fe57506123fe611f45565b8061240c575060005460ff16155b6124475760405162461bcd60e51b815260040180806020018281038252602e815260200180612a3d602e913960400191505060405180910390fd5b600054610100900460ff16158015612472576000805460ff1961ff0019909116610100171660011790555b61247a61248e565b80156123e2576000805461ff001916905550565b600054610100900460ff16806124a757506124a7611f45565b806124b5575060005460ff16155b6124f05760405162461bcd60e51b815260040180806020018281038252602e815260200180612a3d602e913960400191505060405180910390fd5b600054610100900460ff1615801561247a576000805460ff1961ff00199091166101001716600117905580156123e2576000805461ff001916905550565b604051806040016040528060008152602001600081525090565b600060208284031215612559578081fd5b81356105be81612a06565b600060208284031215612575578081fd5b81516105be81612a06565b60008060408385031215612592578081fd5b823561259d81612a06565b915060208301356125ad81612a06565b809150509250929050565b6000806000606084860312156125cc578081fd5b83356125d781612a06565b925060208401356125e781612a06565b915060408401356125f781612a06565b809150509250925092565b600080600060608486031215612616578283fd5b833561262181612a06565b9250602084013561263181612a06565b929592945050506040919091013590565b600080600080600060a08688031215612659578081fd5b853561266481612a06565b9450602086013561267481612a06565b94979496505050506040830135926060810135926080909101359150565b600080604083850312156126a4578182fd5b82356126af81612a06565b946020939093013593505050565b6000602082840312156126ce578081fd5b815180151581146105be578182fd5b6000602082840312156126ee578081fd5b5051919050565b6000808284036060811215612708578283fd5b6040811215612715578283fd5b50604080519081016001600160401b038111828210171561273257fe5b60409081528451825260208086015190830152939093015192949293505050565b600060208284031215612764578081fd5b815163ffffffff811681146105be578182fd5b600060208284031215612788578081fd5b815160ff811681146105be578182fd5b6001600160a01b0391909116815260200190565b6001600160a01b039384168152919092166020820152901515604082015260600190565b6001600160a01b0394851681529290931660208301526040820152606081019190915260800190565b60006040820160018060a01b03808616845260206040818601528286548085526060870191508786528286209450855b81811015612847578554851683526001958601959284019201612829565b509098975050505050505050565b6020808252825182820181905260009190848201906040850190845b818110156128965783516001600160a01b031683529284019291840191600101612871565b50909695505050505050565b901515815260200190565b90815260200190565b60208082526008908201526741425f4348434e4360c01b604082015260600190565b6020808252600890820152674348445f4d524e4360c01b604082015260600190565b6020808252600790820152660869088be9e86960cb1b604082015260600190565b60208082526007908201526641425f45584e4360c81b604082015260600190565b60208082526006908201526541425f4d4e4560d01b604082015260600190565b6020808252600890820152674348445f43484e4360c01b604082015260600190565b60208082526007908201526641425f4f424e4360c81b604082015260600190565b60208082526005908201526420a12fa7ab60d91b604082015260600190565b60208082526006908201526541425f564e4360d01b604082015260600190565b815181526020918201519181019190915260400190565b63ffffffff91909116815260200190565b6001600160a01b03811681146123e257600080fdfe5369676e6564536166654d6174683a206164646974696f6e206f766572666c6f77496e697469616c697a61626c653a20636f6e747261637420697320616c726561647920696e697469616c697a65645369676e6564536166654d6174683a206469766973696f6e206f766572666c6f77536166654d6174683a206d756c7469706c69636174696f6e206f766572666c6f778be0079c531659141344cd1fd0a4f28419497f9722a3daafe3b4186f6b6457e05369676e6564536166654d6174683a206d756c7469706c69636174696f6e206f766572666c6f7753616665436173743a2076616c756520646f65736e27742066697420696e20616e20696e743235365369676e6564536166654d6174683a207375627472616374696f6e206f766572666c6f77a2646970667358221220d02f22c084d00449af9f5c3f3ca41d1c6d95ef3bf4a04e1c9ae03983c7a5b5a764736f6c63430007060033",
  "linkReferences": {},
  "deployedLinkReferences": {}
}