{
  "_format": "hh-sol-artifact-1",
  "contractName": "Multicall2",
  "sourceName": "contracts/lens/Multicall2.sol",
  "abi": [
    {
      "inputs": [
        {
          "components": [
            {
              "internalType": "address",
              "name": "target",
              "type": "address"
            },
            {
              "internalType": "bytes",
              "name": "callData",
              "type": "bytes"
            }
          ],
          "internalType": "struct Multicall2.Call[]",
          "name": "calls",
          "type": "tuple[]"
        }
      ],
      "name": "aggregate",
      "outputs": [
        {
          "internalType": "uint256",
          "name": "blockNumber",
          "type": "uint256"
        },
        {
          "internalType": "bytes[]",
          "name": "returnData",
          "type": "bytes[]"
        }
      ],
      "stateMutability": "nonpayable",
      "type": "function"
    },
    {
      "inputs": [
        {
          "internalType": "bool",
          "name": "requireSuccess",
          "type": "bool"
        },
        {
          "components": [
            {
              "internalType": "address",
              "name": "target",
              "type": "address"
            },
            {
              "internalType": "bytes",
              "name": "callData",
              "type": "bytes"
            }
          ],
          "internalType": "struct Multicall2.Call[]",
          "name": "calls",
          "type": "tuple[]"
        }
      ],
      "name": "tryAggregate",
      "outputs": [
        {
          "components": [
            {
              "internalType": "bool",
              "name": "success",
              "type": "bool"
            },
            {
              "internalType": "bytes",
              "name": "returnData",
              "type": "bytes"
            }
          ],
          "internalType": "struct Multicall2.Result[]",
          "name": "returnData",
          "type": "tuple[]"
        }
      ],
      "stateMutability": "nonpayable",
      "type": "function"
    }
  ],
  "bytecode": "0x608060405234801561001057600080fd5b506106eb806100206000396000f3fe608060405234801561001057600080fd5b50600436106100365760003560e01c8063252dba421461003b578063bce38bd714610065575b600080fd5b61004e61004936600461044c565b610085565b60405161005c9291906105fa565b60405180910390f35b610078610073366004610486565b6101c2565b60405161005c919061051f565b805143906060906001600160401b03811180156100a157600080fd5b506040519080825280602002602001820160405280156100d557816020015b60608152602001906001900390816100c05790505b50905060005b83518110156101bc576000808583815181106100f357fe5b6020026020010151600001516001600160a01b031686848151811061011457fe5b60200260200101516020015160405161012d9190610503565b6000604051808303816000865af19150503d806000811461016a576040519150601f19603f3d011682016040523d82523d6000602084013e61016f565b606091505b50915091508161019a5760405162461bcd60e51b8152600401610191906105c5565b60405180910390fd5b808484815181106101a757fe5b602090810291909101015250506001016100db565b50915091565b606081516001600160401b03811180156101db57600080fd5b5060405190808252806020026020018201604052801561021557816020015b610202610316565b8152602001906001900390816101fa5790505b50905060005b825181101561030f5760008084838151811061023357fe5b6020026020010151600001516001600160a01b031685848151811061025457fe5b60200260200101516020015160405161026d9190610503565b6000604051808303816000865af19150503d80600081146102aa576040519150601f19603f3d011682016040523d82523d6000602084013e6102af565b606091505b509150915085156102d757816102d75760405162461bcd60e51b815260040161019190610584565b60405180604001604052808315158152602001828152508484815181106102fa57fe5b6020908102919091010152505060010161021b565b5092915050565b60408051808201909152600081526060602082015290565b600082601f83011261033e578081fd5b813560206001600160401b038083111561035457fe5b6103618283850201610662565b83815282810190868401865b8681101561043e57813589016040601f198181848f0301121561038e578a8bfd5b81518281018181108a821117156103a157fe5b8352838a01356001600160a01b03811681146103bb578c8dfd5b815283830135898111156103cd578c8dfd5b8085019450508d603f8501126103e1578b8cfd5b89840135898111156103ef57fe5b6103ff8b84601f84011601610662565b92508083528e84828701011115610414578c8dfd5b808486018c85013782018a018c9052808a019190915286525050928501929085019060010161036d565b509098975050505050505050565b60006020828403121561045d578081fd5b81356001600160401b03811115610472578182fd5b61047e8482850161032e565b949350505050565b60008060408385031215610498578081fd5b823580151581146104a7578182fd5b915060208301356001600160401b038111156104c1578182fd5b6104cd8582860161032e565b9150509250929050565b600081518084526104ef816020860160208601610685565b601f01601f19169290920160200192915050565b60008251610515818460208701610685565b9190910192915050565b60208082528251828201819052600091906040908185019080840286018301878501865b8381101561043e57888303603f190185528151805115158452870151878401879052610571878501826104d7565b9588019593505090860190600101610543565b60208082526021908201527f4d756c746963616c6c32206167677265676174653a2063616c6c206661696c656040820152601960fa1b606082015260800190565b6020808252818101527f4d756c746963616c6c206167677265676174653a2063616c6c206661696c6564604082015260600190565b600060408201848352602060408185015281855180845260608601915060608382028701019350828701855b8281101561065457605f198887030184526106428683516104d7565b95509284019290840190600101610626565b509398975050505050505050565b6040518181016001600160401b038111828210171561067d57fe5b604052919050565b60005b838110156106a0578181015183820152602001610688565b838111156106af576000848401525b5050505056fea264697066735822122023aecfdfad720a0e6f9870b36b97242309c05639731052d4c2c2f5bf3b81a54e64736f6c63430007060033",
  "linkReferences": {},
  "deployedLinkReferences": {}
}