{
  "_format": "hh-sol-artifact-1",
  "contractName": "Vault",
  "sourceName": "contracts/Vault.sol",
  "abi": [
    {
      "anonymous": false,
      "inputs": [
        {
          "indexed": true,
          "internalType": "address",
          "name": "collateralToken",
          "type": "address"
        },
        {
          "indexed": true,
          "internalType": "address",
          "name": "trader",
          "type": "address"
        },
        {
          "indexed": false,
          "internalType": "uint256",
          "name": "amount",
          "type": "uint256"
        }
      ],
      "name": "Deposited",
      "type": "event"
    },
    {
      "anonymous": false,
      "inputs": [
        {
          "indexed": true,
          "internalType": "address",
          "name": "previousOwner",
          "type": "address"
        },
        {
          "indexed": true,
          "internalType": "address",
          "name": "newOwner",
          "type": "address"
        }
      ],
      "name": "OwnershipTransferred",
      "type": "event"
    },
    {
      "anonymous": false,
      "inputs": [
        {
          "indexed": false,
          "internalType": "address",
          "name": "account",
          "type": "address"
        }
      ],
      "name": "Paused",
      "type": "event"
    },
    {
      "anonymous": false,
      "inputs": [
        {
          "indexed": false,
          "internalType": "address",
          "name": "trustedForwarder",
          "type": "address"
        }
      ],
      "name": "TrustedForwarderUpdated",
      "type": "event"
    },
    {
      "anonymous": false,
      "inputs": [
        {
          "indexed": false,
          "internalType": "address",
          "name": "account",
          "type": "address"
        }
      ],
      "name": "Unpaused",
      "type": "event"
    },
    {
      "anonymous": false,
      "inputs": [
        {
          "indexed": true,
          "internalType": "address",
          "name": "collateralToken",
          "type": "address"
        },
        {
          "indexed": true,
          "internalType": "address",
          "name": "trader",
          "type": "address"
        },
        {
          "indexed": false,
          "internalType": "uint256",
          "name": "amount",
          "type": "uint256"
        }
      ],
      "name": "Withdrawn",
      "type": "event"
    },
    {
      "inputs": [],
      "name": "accountBalance",
      "outputs": [
        {
          "internalType": "address",
          "name": "",
          "type": "address"
        }
      ],
      "stateMutability": "view",
      "type": "function"
    },
    {
      "inputs": [
        {
          "internalType": "address",
          "name": "trader",
          "type": "address"
        }
      ],
      "name": "balanceOf",
      "outputs": [
        {
          "internalType": "int256",
          "name": "",
          "type": "int256"
        }
      ],
      "stateMutability": "view",
      "type": "function"
    },
    {
      "inputs": [],
      "name": "candidate",
      "outputs": [
        {
          "internalType": "address",
          "name": "",
          "type": "address"
        }
      ],
      "stateMutability": "view",
      "type": "function"
    },
    {
      "inputs": [],
      "name": "clearingHouseConfig",
      "outputs": [
        {
          "internalType": "address",
          "name": "",
          "type": "address"
        }
      ],
      "stateMutability": "view",
      "type": "function"
    },
    {
      "inputs": [],
      "name": "decimals",
      "outputs": [
        {
          "internalType": "uint8",
          "name": "",
          "type": "uint8"
        }
      ],
      "stateMutability": "view",
      "type": "function"
    },
    {
      "inputs": [
        {
          "internalType": "address",
          "name": "token",
          "type": "address"
        },
        {
          "internalType": "uint256",
          "name": "amount",
          "type": "uint256"
        }
      ],
      "name": "deposit",
      "outputs": [],
      "stateMutability": "nonpayable",
      "type": "function"
    },
    {
      "inputs": [
        {
          "internalType": "address",
          "name": "trader",
          "type": "address"
        }
      ],
      "name": "getFreeCollateral",
      "outputs": [
        {
          "internalType": "uint256",
          "name": "",
          "type": "uint256"
        }
      ],
      "stateMutability": "view",
      "type": "function"
    },
    {
      "inputs": [
        {
          "internalType": "address",
          "name": "trader",
          "type": "address"
        },
        {
          "internalType": "uint24",
          "name": "ratio",
          "type": "uint24"
        }
      ],
      "name": "getFreeCollateralByRatio",
      "outputs": [
        {
          "internalType": "int256",
          "name": "",
          "type": "int256"
        }
      ],
      "stateMutability": "view",
      "type": "function"
    },
    {
      "inputs": [
        {
          "internalType": "address",
          "name": "insuranceFundArg",
          "type": "address"
        },
        {
          "internalType": "address",
          "name": "clearingHouseConfigArg",
          "type": "address"
        },
        {
          "internalType": "address",
          "name": "accountBalanceArg",
          "type": "address"
        }
      ],
      "name": "initialize",
      "outputs": [],
      "stateMutability": "nonpayable",
      "type": "function"
    },
    {
      "inputs": [],
      "name": "insuranceFund",
      "outputs": [
        {
          "internalType": "address",
          "name": "",
          "type": "address"
        }
      ],
      "stateMutability": "view",
      "type": "function"
    },
    {
      "inputs": [
        {
          "internalType": "address",
          "name": "forwarder",
          "type": "address"
        }
      ],
      "name": "isTrustedForwarder",
      "outputs": [
        {
          "internalType": "bool",
          "name": "",
          "type": "bool"
        }
      ],
      "stateMutability": "view",
      "type": "function"
    },
    {
      "inputs": [],
      "name": "owner",
      "outputs": [
        {
          "internalType": "address",
          "name": "",
          "type": "address"
        }
      ],
      "stateMutability": "view",
      "type": "function"
    },
    {
      "inputs": [],
      "name": "pause",
      "outputs": [],
      "stateMutability": "nonpayable",
      "type": "function"
    },
    {
      "inputs": [],
      "name": "paused",
      "outputs": [
        {
          "internalType": "bool",
          "name": "",
          "type": "bool"
        }
      ],
      "stateMutability": "view",
      "type": "function"
    },
    {
      "inputs": [],
      "name": "renounceOwnership",
      "outputs": [],
      "stateMutability": "nonpayable",
      "type": "function"
    },
    {
      "inputs": [
        {
          "internalType": "address",
          "name": "newOwner",
          "type": "address"
        }
      ],
      "name": "setOwner",
      "outputs": [],
      "stateMutability": "nonpayable",
      "type": "function"
    },
    {
      "inputs": [
        {
          "internalType": "address",
          "name": "trustedForwarderArg",
          "type": "address"
        }
      ],
      "name": "setTrustedForwarder",
      "outputs": [],
      "stateMutability": "nonpayable",
      "type": "function"
    },
    {
      "inputs": [],
      "name": "settlementToken",
      "outputs": [
        {
          "internalType": "address",
          "name": "",
          "type": "address"
        }
      ],
      "stateMutability": "view",
      "type": "function"
    },
    {
      "inputs": [],
      "name": "totalDebt",
      "outputs": [
        {
          "internalType": "uint256",
          "name": "",
          "type": "uint256"
        }
      ],
      "stateMutability": "view",
      "type": "function"
    },
    {
      "inputs": [],
      "name": "trustedForwarder",
      "outputs": [
        {
          "internalType": "address",
          "name": "",
          "type": "address"
        }
      ],
      "stateMutability": "view",
      "type": "function"
    },
    {
      "inputs": [],
      "name": "unpause",
      "outputs": [],
      "stateMutability": "nonpayable",
      "type": "function"
    },
    {
      "inputs": [],
      "name": "updateOwner",
      "outputs": [],
      "stateMutability": "nonpayable",
      "type": "function"
    },
    {
      "inputs": [],
      "name": "versionRecipient",
      "outputs": [
        {
          "internalType": "string",
          "name": "",
          "type": "string"
        }
      ],
      "stateMutability": "view",
      "type": "function"
    },
    {
      "inputs": [
        {
          "internalType": "address",
          "name": "token",
          "type": "address"
        },
        {
          "internalType": "uint256",
          "name": "amount",
          "type": "uint256"
        }
      ],
      "name": "withdraw",
      "outputs": [],
      "stateMutability": "nonpayable",
      "type": "function"
    }
  ],
  "bytecode": "0x608060405234801561001057600080fd5b506127ee806100206000396000f3fe608060405234801561001057600080fd5b50600436106101285760003560e01c806313af40351461012d578063313ce567146101555780633f4ba83a146101735780633ffd13031461017b57806347e7ef24146101be578063486ff0cd146101ea578063572b6c05146102675780635c975abb146102a15780636c8381f8146102a957806370a08231146102cd578063715018a6146102f35780637b9e618d146102fb5780637da0a877146103035780638456cb591461030b5780638da5cb5b14610313578063b0a1c1c41461031b578063b790230314610323578063bc5920ba1461032b578063c0c53b8b14610333578063c2075b211461036b578063c399944414610373578063da74222814610399578063f3fef3a3146103bf578063fc7b9c18146103eb575b600080fd5b6101536004803603602081101561014357600080fd5b50356001600160a01b03166103f3565b005b61015d61054e565b6040805160ff9092168252519081900360200190f35b610153610558565b6101ac6004803603604081101561019157600080fd5b5080356001600160a01b0316906020013562ffffff166105bf565b60408051918252519081900360200190f35b610153600480360360408110156101d457600080fd5b506001600160a01b03813516906020013561069f565b6101f2610948565b6040805160208082528351818301528351919283929083019185019080838360005b8381101561022c578181015183820152602001610214565b50505050905090810190601f1680156102595780820380516001836020036101000a031916815260200191505b509250505060405180910390f35b61028d6004803603602081101561027d57600080fd5b50356001600160a01b03166109d7565b604080519115158252519081900360200190f35b61028d6109eb565b6102b16109f5565b604080516001600160a01b039092168252519081900360200190f35b6101ac600480360360208110156102e357600080fd5b50356001600160a01b0316610a04565b610153610aab565b6102b1610b4c565b6102b1610b61565b610153610b70565b6102b1610bd5565b6102b1610be4565b6102b1610bf4565b610153610c04565b6101536004803603606081101561034957600080fd5b506001600160a01b038135811691602081013582169160409091013516610cf0565b6102b1611012565b6101ac6004803603602081101561038957600080fd5b50356001600160a01b0316611022565b610153600480360360208110156103af57600080fd5b50356001600160a01b0316611047565b610153600480360360408110156103d557600080fd5b506001600160a01b0381351690602001356110fb565b6101ac611410565b6103fb611417565b6001600160a01b031661040c610bd5565b6001600160a01b031614610450576040805162461bcd60e51b8152602060048201526006602482015265534f5f434e4f60d01b604482015290519081900360640190fd5b6001600160a01b038116610494576040805162461bcd60e51b81526020600482015260066024820152650534f5f4e57360d41b604482015290519081900360640190fd5b6065546001600160a01b03828116911614156104e0576040805162461bcd60e51b8152602060048201526006602482015265534f5f53414f60d01b604482015290519081900360640190fd5b6066546001600160a01b038281169116141561052c576040805162461bcd60e51b8152602060048201526006602482015265534f5f53414360d01b604482015290519081900360640190fd5b606680546001600160a01b0319166001600160a01b0392909216919091179055565b6101305460ff1681565b610560611417565b6001600160a01b0316610571610bd5565b6001600160a01b0316146105b5576040805162461bcd60e51b8152602060048201526006602482015265534f5f434e4f60d01b604482015290519081900360640190fd5b6105bd611426565b565b6000806105cb846114c6565b61013254604080516315f53c9b60e11b81526001600160a01b038881166004830152915193945060009361065f939290921691632bea793691602480820192602092909190829003018186803b15801561062457600080fd5b505afa158015610638573d6000803e3d6000fd5b505050506040513d602081101561064e57600080fd5b50516101305484919060ff16611571565b9050600061066d8686611594565b905061069361067b8261161c565b6101305460ff1661068c8686611664565b919061167a565b93505050505b92915050565b6106a76109eb565b156106ec576040805162461bcd60e51b815260206004820152601060248201526f14185d5cd8589b194e881c185d5cd95960821b604482015290519081900360640190fd5b60026001541415610732576040805162461bcd60e51b815260206004820152601f6024820152600080516020612615833981519152604482015290519081900360640190fd5b60026001556001600160a01b0382166000908152610138602052604090205460ff1661078d576040805162461bcd60e51b81526020600482015260056024820152642b2fa1a72360d91b604482015290519081900360640190fd5b6000610797611417565b90506107ac81846107a78561161c565b611693565b6000836001600160a01b03166370a08231836040518263ffffffff1660e01b815260040180826001600160a01b0316815260200191505060206040518083038186803b1580156107fb57600080fd5b505afa15801561080f573d6000803e3d6000fd5b505050506040513d602081101561082557600080fd5b50519050610835848330866116d3565b826108b9856001600160a01b03166370a08231856040518263ffffffff1660e01b815260040180826001600160a01b0316815260200191505060206040518083038186803b15801561088657600080fd5b505afa15801561089a573d6000803e3d6000fd5b505050506040513d60208110156108b057600080fd5b5051839061182f565b146108f3576040805162461bcd60e51b8152602060048201526005602482015264565f42414960d81b604482015290519081900360640190fd5b816001600160a01b0316846001600160a01b03167f8752a472e571a816aea92eec8dae9baf628e840f4929fbcc2d155e6233ff68a7856040518082815260200191505060405180910390a35050600180555050565b610135805460408051602060026001851615610100026000190190941693909304601f810184900484028201840190925281815292918301828280156109cf5780601f106109a4576101008083540402835291602001916109cf565b820191906000526020600020905b8154815290600101906020018083116109b257829003601f168201915b505050505081565b60fd546001600160a01b0390811691161490565b60995460ff165b90565b6066546001600160a01b031690565b60008060005b61013654811015610aa45760006101368281548110610a2557fe5b600091825260209091200154610130546001600160a01b0391821692506101009004168114610a855760405162461bcd60e51b81526004018080602001828103825260238152602001806126b56023913960400191505060405180910390fd5b610a99610a92868361188c565b84906118b8565b925050600101610a0a565b5092915050565b610ab3611417565b6001600160a01b0316610ac4610bd5565b6001600160a01b031614610b08576040805162461bcd60e51b8152602060048201526006602482015265534f5f434e4f60d01b604482015290519081900360640190fd5b6065546040516000916001600160a01b0316906000805160206126f9833981519152908390a3606580546001600160a01b0319908116909155606680549091169055565b6101305461010090046001600160a01b031681565b60fd546001600160a01b031681565b610b78611417565b6001600160a01b0316610b89610bd5565b6001600160a01b031614610bcd576040805162461bcd60e51b8152602060048201526006602482015265534f5f434e4f60d01b604482015290519081900360640190fd5b6105bd61191d565b6065546001600160a01b031690565b610132546001600160a01b031681565b610133546001600160a01b031681565b6066546001600160a01b0316610c49576040805162461bcd60e51b81526020600482015260056024820152640534f5f43360dc1b604482015290519081900360640190fd5b610c51611417565b6066546001600160a01b03908116911614610c9c576040805162461bcd60e51b8152602060048201526006602482015265534f5f434e4360d01b604482015290519081900360640190fd5b6066546065546040516001600160a01b0392831692909116906000805160206126f983398151915290600090a360668054606580546001600160a01b03199081166001600160a01b03841617909155169055565b600054610100900460ff1680610d095750610d096119a0565b80610d17575060005460ff16155b610d525760405162461bcd60e51b815260040180806020018281038252602e815260200180612687602e913960400191505060405180910390fd5b600054610100900460ff16158015610d7d576000805460ff1961ff0019909116610100171660011790555b6000846001600160a01b031663fc0c546a6040518163ffffffff1660e01b8152600401602060405180830381600087803b158015610dba57600080fd5b505af1158015610dce573d6000803e3d6000fd5b505050506040513d6020811015610de457600080fd5b50516040805163313ce56760e01b815290519192506000916001600160a01b0384169163313ce567916004808301926020929190829003018186803b158015610e2c57600080fd5b505afa158015610e40573d6000803e3d6000fd5b505050506040513d6020811015610e5657600080fd5b50519050601260ff82161115610e9c576040805162461bcd60e51b81526020600482015260066024820152651597d254d51160d21b604482015290519081900360640190fd5b610eae856001600160a01b03166119b1565b610ee9576040805162461bcd60e51b8152602060048201526007602482015266565f4348434e4360c81b604482015290519081900360640190fd5b610efb846001600160a01b03166119b1565b610f35576040805162461bcd60e51b8152602060048201526006602482015265565f41424e4360d01b604482015290519081900360640190fd5b610f3d6119b7565b610f45611a60565b610130805460ff191660ff831617610100600160a81b0319166101006001600160a01b03858116919091029190911790915561013380546001600160a01b031916918816919091179055610f9882611afd565b61013180546001600160a01b038088166001600160a01b031992831617909255610132805492871692909116919091179055604080518082019091526005808252640322e302e360dc1b6020909201918252610ff7916101359161257c565b505050801561100c576000805461ff00191690555b50505050565b610131546001600160a01b031681565b600061069961104261103b84611036611bbc565b6105bf565b6000611c33565b611c43565b61104f611417565b6001600160a01b0316611060610bd5565b6001600160a01b0316146110a4576040805162461bcd60e51b8152602060048201526006602482015265534f5f434e4f60d01b604482015290519081900360640190fd5b6110b6816001600160a01b03166119b1565b6110ef576040805162461bcd60e51b8152602060048201526005602482015264565f414e4360d81b604482015290519081900360640190fd5b6110f881611c9a565b50565b6111036109eb565b15611148576040805162461bcd60e51b815260206004820152601060248201526f14185d5cd8589b194e881c185d5cd95960821b604482015290519081900360640190fd5b6002600154141561118e576040805162461bcd60e51b815260206004820152601f6024820152600080516020612615833981519152604482015290519081900360640190fd5b6002600155600061119d611417565b6101325460408051636a256b2960e01b81526001600160a01b03808516600483015291519394506000939190921691636a256b2991602480830192602092919082900301818787803b1580156111f257600080fd5b505af1158015611206573d6000803e3d6000fd5b505050506040513d602081101561121c57600080fd5b505190506112298361161c565b6112448261123e61123986611022565b61161c565b906118b8565b1215611280576040805162461bcd60e51b8152602060048201526006602482015265565f4e45464360d01b604482015290519081900360640190fd5b610130546001600160a01b03858116610100909204161415611398576000846001600160a01b03166370a08231306040518263ffffffff1660e01b815260040180826001600160a01b0316815260200191505060206040518083038186803b1580156112eb57600080fd5b505afa1580156112ff573d6000803e3d6000fd5b505050506040513d602081101561131557600080fd5b505190508381101561139657610133546040805163317afabb60e21b815283870360048201819052915191926001600160a01b03169163c5ebeaec9160248082019260009290919082900301818387803b15801561137257600080fd5b505af1158015611386573d6000803e3d6000fd5b5050610134805490930190925550505b505b6113b082856107a76113a98761161c565b8590611d34565b6113bb848385611d99565b816001600160a01b0316846001600160a01b03167fd1c19fbcd4551a5edfb66d43d2e337c04837afda3482b42bdf569a8fccdae5fb856040518082815260200191505060405180910390a35050600180555050565b6101345481565b6000611421611eec565b905090565b61142e6109eb565b611476576040805162461bcd60e51b815260206004820152601460248201527314185d5cd8589b194e881b9bdd081c185d5cd95960621b604482015290519081900360640190fd5b6099805460ff191690557f5db9ee0a495bf2e6ff9c91a7834c1ba4fdd244a5e8aa4e537bd38aeae4b073aa6114a9611417565b604080516001600160a01b039092168252519081900360200190a1565b6000806114d283610a04565b610132546040805163ee817e8b60e01b81526001600160a01b0387811660048301529151939450600093919092169163ee817e8b916024808301926020929190829003018186803b15801561152657600080fd5b505afa15801561153a573d6000803e3d6000fd5b505050506040513d602081101561155057600080fd5b505161013054909150611569908390839060ff16611571565b949350505050565b600061158a6115848461123e8786611f1e565b83611f34565b90505b9392505050565b610132546040805163293a507760e01b81526001600160a01b03858116600483015291516000938493169163293a5077916024808301926020929190829003018186803b1580156115e457600080fd5b505afa1580156115f8573d6000803e3d6000fd5b505050506040513d602081101561160e57600080fd5b505190506115698184611f4a565b6000600160ff1b82106116605760405162461bcd60e51b81526004018080602001828103825260288152602001806127406028913960400191505060405180910390fd5b5090565b6000818312611673578161158d565b5090919050565b600061158a6115848461168d8786611f1e565b90611d34565b6116a18161123e858561188c565b6001600160a01b0393841660009081526101376020908152604080832095909616825293909352929091209190915550565b604080516001600160a01b0385811660248301528481166044830152606480830185905283518084039091018152608490920183526020820180516001600160e01b03166323b872dd60e01b178152925182516000948594938a169392918291908083835b602083106117575780518252601f199092019160209182019101611738565b6001836020036101000a0380198251168184511680821785525050505050509050019150506000604051808303816000865af19150503d80600081146117b9576040519150601f19603f3d011682016040523d82523d6000602084013e6117be565b606091505b50915091508180156117ec5750805115806117ec57508080602001905160208110156117e957600080fd5b50515b6118275760405162461bcd60e51b81526004018080602001828103825260318152602001806126356031913960400191505060405180910390fd5b505050505050565b600082821115611886576040805162461bcd60e51b815260206004820152601e60248201527f536166654d6174683a207375627472616374696f6e206f766572666c6f770000604482015290519081900360640190fd5b50900390565b6001600160a01b0391821660009081526101376020908152604080832093909416825291909152205490565b60008282018183128015906118cd5750838112155b806118e257506000831280156118e257508381125b61158d5760405162461bcd60e51b81526004018080602001828103825260218152602001806126666021913960400191505060405180910390fd5b6119256109eb565b1561196a576040805162461bcd60e51b815260206004820152601060248201526f14185d5cd8589b194e881c185d5cd95960821b604482015290519081900360640190fd5b6099805460ff191660011790557f62e78cea01bee320cd4e420270b5ea74000d11b0c9f74754ebdbfc544b05a2586114a9611417565b60006119ab306119b1565b15905090565b3b151590565b600054610100900460ff16806119d057506119d06119a0565b806119de575060005460ff16155b611a195760405162461bcd60e51b815260040180806020018281038252602e815260200180612687602e913960400191505060405180910390fd5b600054610100900460ff16158015611a44576000805460ff1961ff0019909116610100171660011790555b611a4c611f5f565b80156110f8576000805461ff001916905550565b600054610100900460ff1680611a795750611a796119a0565b80611a87575060005460ff16155b611ac25760405162461bcd60e51b815260040180806020018281038252602e815260200180612687602e913960400191505060405180910390fd5b600054610100900460ff16158015611aed576000805460ff1961ff0019909116610100171660011790555b611af5612004565b611a4c6120f3565b6001600160a01b0381166000908152610138602052604090205460ff1615611b54576040805162461bcd60e51b8152602060048201526005602482015264565f43544560d81b604482015290519081900360640190fd5b6001600160a01b0316600081815261013860205260408120805460ff19166001908117909155610136805491820181559091527f39da2db355130acf428d669fbf1c14faa9d51399a25b793fc254bbbde66f02e20180546001600160a01b0319169091179055565b6101315460408051632f60a15160e01b815290516000926001600160a01b031691632f60a151916004808301926020929190829003018186803b158015611c0257600080fd5b505afa158015611c16573d6000803e3d6000fd5b505050506040513d6020811015611c2c57600080fd5b5051905090565b600081831215611673578161158d565b600080821215611660576040805162461bcd60e51b815260206004820181905260248201527f53616665436173743a2076616c7565206d75737420626520706f736974697665604482015290519081900360640190fd5b6001600160a01b038116611ce0576040805162461bcd60e51b81526020600482015260086024820152674252435f4954464160c01b604482015290519081900360640190fd5b60fd80546001600160a01b0383166001600160a01b0319909116811790915560408051918252517fa4388ecc389b1390354ae0c65a856c0d7dd4fb648419f5d3ac0b99e38f46fd119181900360200190a150565b6000818303818312801590611d495750838113155b80611d5e5750600083128015611d5e57508381135b61158d5760405162461bcd60e51b81526004018080602001828103825260248152602001806127956024913960400191505060405180910390fd5b604080516001600160a01b038481166024830152604480830185905283518084039091018152606490920183526020820180516001600160e01b031663a9059cbb60e01b1781529251825160009485949389169392918291908083835b60208310611e155780518252601f199092019160209182019101611df6565b6001836020036101000a0380198251168184511680821785525050505050509050019150506000604051808303816000865af19150503d8060008114611e77576040519150601f19603f3d011682016040523d82523d6000602084013e611e7c565b606091505b5091509150818015611eaa575080511580611eaa5750808060200190516020811015611ea757600080fd5b50515b611ee55760405162461bcd60e51b815260040180806020018281038252602d815260200180612768602d913960400191505060405180910390fd5b5050505050565b600060183610801590611f035750611f03336109d7565b15611f17575060131936013560601c6109f2565b50336109f2565b600061158d8360ff601285900316600a0a612190565b600061158d8360ff601285900316600a0a612239565b600061158d838362ffffff16620f42406122f1565b600054610100900460ff1680611f785750611f786119a0565b80611f86575060005460ff16155b611fc15760405162461bcd60e51b815260040180806020018281038252602e815260200180612687602e913960400191505060405180910390fd5b600054610100900460ff16158015611fec576000805460ff1961ff0019909116610100171660011790555b6001805580156110f8576000805461ff001916905550565b600054610100900460ff168061201d575061201d6119a0565b8061202b575060005460ff16155b6120665760405162461bcd60e51b815260040180806020018281038252602e815260200180612687602e913960400191505060405180910390fd5b600054610100900460ff16158015612091576000805460ff1961ff0019909116610100171660011790555b6120996123a0565b60006120a3611417565b606580546001600160a01b0319166001600160a01b038316908117909155604051919250906000906000805160206126f9833981519152908290a35080156110f8576000805461ff001916905550565b600054610100900460ff168061210c575061210c6119a0565b8061211a575060005460ff16155b6121555760405162461bcd60e51b815260040180806020018281038252602e815260200180612687602e913960400191505060405180910390fd5b600054610100900460ff16158015612180576000805460ff1961ff0019909116610100171660011790555b612188612431565b611a4c6124d1565b60008261219f57506000610699565b826000191480156121b35750600160ff1b82145b156121ef5760405162461bcd60e51b81526004018080602001828103825260278152602001806127196027913960400191505060405180910390fd5b828202828482816121fc57fe5b051461158d5760405162461bcd60e51b81526004018080602001828103825260278152602001806127196027913960400191505060405180910390fd5b60008161228d576040805162461bcd60e51b815260206004820181905260248201527f5369676e6564536166654d6174683a206469766973696f6e206279207a65726f604482015290519081900360640190fd5b816000191480156122a15750600160ff1b83145b156122dd5760405162461bcd60e51b81526004018080602001828103825260218152602001806126d86021913960400191505060405180910390fd5b60008284816122e857fe5b05949350505050565b6000808060001985870986860292508281109083900303905080612327576000841161231c57600080fd5b50829004905061158d565b80841161233357600080fd5b6000848688096000868103871696879004966002600389028118808a02820302808a02820302808a02820302808a02820302808a02820302808a02909103029181900381900460010186841190950394909402919094039290920491909117919091029150509392505050565b600054610100900460ff16806123b957506123b96119a0565b806123c7575060005460ff16155b6124025760405162461bcd60e51b815260040180806020018281038252602e815260200180612687602e913960400191505060405180910390fd5b600054610100900460ff1615801561242d576000805460ff1961ff0019909116610100171660011790555b611a4c5b600054610100900460ff168061244a575061244a6119a0565b80612458575060005460ff16155b6124935760405162461bcd60e51b815260040180806020018281038252602e815260200180612687602e913960400191505060405180910390fd5b600054610100900460ff16158015611a4c576000805460ff1961ff00199091166101001716600117905580156110f8576000805461ff001916905550565b600054610100900460ff16806124ea57506124ea6119a0565b806124f8575060005460ff16155b6125335760405162461bcd60e51b815260040180806020018281038252602e815260200180612687602e913960400191505060405180910390fd5b600054610100900460ff1615801561255e576000805460ff1961ff0019909116610100171660011790555b6099805460ff1916905580156110f8576000805461ff001916905550565b828054600181600116156101000203166002900490600052602060002090601f0160209004810192826125b257600085556125f8565b82601f106125cb57805160ff19168380011785556125f8565b828001600101855582156125f8579182015b828111156125f85782518255916020019190600101906125dd565b506116609291505b80821115611660576000815560010161260056fe5265656e7472616e637947756172643a207265656e7472616e742063616c6c005472616e7366657248656c7065723a3a7472616e7366657246726f6d3a207472616e7366657246726f6d206661696c65645369676e6564536166654d6174683a206164646974696f6e206f766572666c6f77496e697469616c697a61626c653a20636f6e747261637420697320616c726561647920696e697469616c697a6564544244202d20746f6b656e2074776170202a2074726164657227732062616c616e63655369676e6564536166654d6174683a206469766973696f6e206f766572666c6f778be0079c531659141344cd1fd0a4f28419497f9722a3daafe3b4186f6b6457e05369676e6564536166654d6174683a206d756c7469706c69636174696f6e206f766572666c6f7753616665436173743a2076616c756520646f65736e27742066697420696e20616e20696e743235365472616e7366657248656c7065723a3a736166655472616e736665723a207472616e73666572206661696c65645369676e6564536166654d6174683a207375627472616374696f6e206f766572666c6f77a2646970667358221220776efade40d9b647c6c32dca78b4c5bd11783ce15afa53d2a894ac09a3f62d8e64736f6c63430007060033",
  "linkReferences": {},
  "deployedLinkReferences": {}
}